:020000040800F2
:10000000A40B0020A5370008153800081538000893
:1000100015380008153800081538000800000000E1
:10002000000000000000000000000000153800087B
:1000300015380008000000001538000815380008C1
:10004000153800081538000815380008153800085C
:10005000153800081538000815380008153800084C
:10006000153800081538000815380008153800083C
:10007000153800081538000815380008153800082C
:10008000153800081538000815380008153800081C
:10009000153800081538000815380008153800080C
:1000A00015380008153800081538000815380008FC
:1000B00015380008153800081538000815380008EC
:1000C00015380008153800081538000815380008DC
:1000D00015380008153800081538000815380008CC
:1000E00015380008153800081538000815380008BC
:1000F00015380008153800081538000815380008AC
:10010000153800081538000815380008153800089B
:10011000153800081538000815380008153800088B
:10012000153800081538000815380008153800087B
:10013000153800081538000815380008153800086B
:10014000153800081538000815380008153800085B
:10015000153800081538000815380008153800084B
:10016000153800081538000815380008153800083B
:10017000153800081538000815380008153800082B
:10018000153800081538000880B483B000AF7860D7
:100190007A6840F21803C2F200031A600BE040F2E2
:1001A0001803C2F200031B6803F1FF3240F2180388
:1001B000C2F200031A6040F21803C2F200031B6887
:1001C000002BECD107F10C07BD4680BC704700BF87
:1001D00080B500AF4FF400604FF0010103F062FD05
:1001E0004FF400604FF0000103F05CFD80BD00BFE4
:1001F00080B485B000AF78604FF00003FB604FF42F
:100200003053C4F201035B68FB60FB6823F4FD43D9
:1002100023F07F03FB607B681B7D1A467B689B682D
:100220001A437B685B681A437B68DB681A437B6808
:100230001B681A437B681B691343FA681343FB600E
:100240004FF43053C4F20103FA685A6007F11407FF
:10025000BD4680BC704700BF80B483B000AF03468A
:10026000FB7148F2A003C4F22523FA791A6007F162
:100270000C07BD4680BC704780B483B000AF786087
:100280004FF43053C4F201037A681A6007F10C0787
:10029000BD4680BC704700BF80B400AF4FF4305300
:1002A000C4F201031B6803F003031846BD4680BC7B
:1002B000704700BF80B485B000AF78604FF0000396
:1002C000FB604FF43053C4F201037A6812689A60FD
:1002D0004FF43053C4F20103DB68FB60FB6823F486
:1002E000FF6323F00703FB607B685A687B689B68A9
:1002F0001A437B68DB681A437B681B691343FA68FF
:100300001343FB604FF43053C4F20103FA68DA6020
:1003100007F11407BD4680BC704700BF80B400AF32
:100320004FF43053C4F201031B69DBB21846BD46DB
:1003300080BC704780B485B000AF78604FF0000398
:10034000FB607A6842F61443C4F20103D318FB60E1
:10035000FB681B68184607F11407BD4680BC704750
:1003600080B485B000AF78604FF00003FB604FF4BD
:100370003053C4F201037A6812685A624FF4305362
:10038000C4F201037A6852689A624FF43053C4F29F
:100390000103DB6AFB60FB6823F0F703FB607B680B
:1003A0009A687B68DB681A437B681B691A437B6821
:1003B0005B691343FA681343FB604FF43053C4F294
:1003C0000103FA68DA6207F11407BD4680BC704782
:1003D00080B400AF4FF43053C4F20103D3F880303F
:1003E0001846BD4680BC704780B483B000AF03465A
:1003F000FB7148F28C53C4F22523FA791A6007F195
:100400000C07BD4680BC704780B483B000AF7860F5
:100410000B46FB70FB78002B0CD04FF43053C4F22A
:1004200001034FF43052C4F20102D16B7A680A43DF
:10043000DA630DE04FF43053C4F201034FF430524D
:10044000C4F20102D16B7A686FEA02020A40DA63F1
:1004500007F10C07BD4680BC704700BF80B485B073
:1004600000AF78604FF00003FB734FF43053C4F2D9
:1004700001035A6B7B681340002B03D04FF001033C
:10048000FB7302E04FF00003FB73FB7B184607F1A0
:100490001407BD4680BC704780B483B000AF78605D
:1004A0004FF43053C4F201037A689A6307F10C07E2
:1004B000BD4680BC704700BF80B500AF00F070FD46
:1004C00040F6B830FFF760FE00F074FE40F6B8303A
:1004D000FFF75AFE00F028FF4FF0640000F0D6FE50
:1004E0004FF007004FF0210100F0D8F94FF0320033
:1004F000FFF74AFE4FF000004FF0010100F0CEF987
:100500004FF03200FFF740FE4FF007004FF023019D
:1005100000F0C4F94FF03200FFF736FE4FF0100044
:100520004FF0000100F0BAF94FF05A00FFF72CFE2F
:100530004FF007004FF0330100F0B0F94FF03200F8
:10054000FFF722FE4FF0110046F6300100F0A6F949
:100550004FF03200FFF718FE4FF002004FF4C06179
:1005600000F09CF94FF03200FFF70EFE4FF0120042
:1005700046F6EB4100F092F94FF03200FFF704FE2F
:100580004FF003004AF6A40100F088F94FF0320062
:10059000FFF7FAFD4FF00C004FF0000100F07EF97C
:1005A0004FF03200FFF7F0FD4FF00D0040F60C0168
:1005B00000F074F94FF03200FFF7E6FD4FF00E0047
:1005C0004FF42C5100F06AF94FF03200FFF7DCFDD8
:1005D0004FF01E004FF0B00100F060F94FF0320014
:1005E000FFF7D2FD4FF0010042F63F3100F056F91F
:1005F0004FF03200FFF7C8FD4FF005004FF000014B
:1006000000F04CF94FF03200FFF7BEFD4FF006004E
:100610004FF0000100F042F94FF03200FFF7B4FD57
:100620004FF016004EF61C7100F038F94FF0320012
:10063000FFF7AAFD4FF0170040F2031100F02EF96A
:100640004FF03200FFF7A0FD4FF00B004FF000011C
:1006500000F024F94FF03200FFF796FD4FF00F0045
:100660004FF0000100F01AF94FF03200FFF78CFD57
:100670004FF041004FF0000100F010F94FF0320050
:10068000FFF782FD4FF042004FF0000100F006F945
:100690004FF03200FFF778FD4FF048004FF00001B7
:1006A00000F0FCF84FF03200FFF76EFD4FF049000C
:1006B00040F23F1100F0F2F84FF03200FFF764FD16
:1006C0004FF04A004FF0000100F0E8F84FF0320020
:1006D000FFF75AFD4FF04B004FF0000100F0DEF83D
:1006E0004FF03200FFF750FD4FF044004FF46F41E0
:1006F00000F0D4F84FF03200FFF746FD4FF0450010
:100700004FF0000100F0CAF84FF03200FFF73CFD57
:100710004FF0460040F23F1100F0C0F84FF03200B9
:10072000FFF732FD4FF0300040F2077100F0B6F8ED
:100730004FF03200FFF728FD4FF031004FF4017108
:1007400000F0ACF84FF03200FFF71EFD4FF0320022
:100750004FF4017100F0A2F84FF03200FFF714FDE2
:100760004FF0330040F2025100F098F84FF03200A1
:10077000FFF70AFD4FF0340040F2075100F08EF809
:100780004FF03200FFF700FD4FF035004FF40171DC
:1007900000F084F84FF03200FFF7F6FC4FF036001F
:1007A0004FF4017100F07AF84FF03200FFF7ECFCE3
:1007B0004FF0370040F2025100F070F84FF0320075
:1007C000FFF7E2FC4FF03A0040F2023100F066F829
:1007D0004FF03200FFF7D8FC4FF02F0041F2BE215E
:1007E00000F05CF84FF03200FFF7CEFC4FF03B001A
:1007F00040F2023100F052F84FF03200FFF7C4FC33
:100800004FF023004FF0000100F048F84FF03200A5
:10081000FFF7BAFC4FF024004FF0000100F03EF863
:100820004FF03200FFF7B0FC4FF025004FF40041CD
:1008300000F034F84FF03200FFF7A6FC4FF04F0005
:100840004FF0000100F02AF84FF03200FFF79CFC57
:100850004FF04E004FF0000100F020F84FF0320052
:10086000FFF792FC80BD00BF80B400AF4FF0C043E3
:100870004FF022021A80BD4680BC704780B483B01E
:1008800000AF0346FB804FF00003C6F20203FA8874
:100890001A8007F10C07BD4680BC704780B483B056
:1008A00000AF02460B46FA71BB804FF0C043FA79A5
:1008B00092B21A804FF00003C6F20203BA881A807F
:1008C00007F10C07BD4680BC704700BF80B483B001
:1008D00000AF0346FB80FB889AB240F21C03C2F2D1
:1008E00000031A8007F10C07BD4680BC704700BFAB
:1008F00080B584B000AF0346FB804FF00003FB607F
:100900004FF000004FF0000100F01CF8FFF7ACFFC3
:100910004FF00003FB6009E04FF00003C6F2020352
:10092000FA881A80FB6803F10103FB60FA6842F65B
:10093000FF33C0F201039A42EED907F11007BD461A
:1009400080BD00BF80B582B000AF02460B46FA8082
:10095000BB80FB884FF04E001946FFF79FFFBB8816
:100960004FF04F001946FFF799FF07F10807BD4602
:1009700080BD00BF80B582B000AF13460246FA804A
:100980000A46BA807B80B7F90630EF2B12DCB7F944
:10099000042040F23F139A420CDCFA88BB881046D0
:1009A0001946FFF7CFFFFFF75FFF7B881846FFF779
:1009B00065FF00E000BF07F10807BD4680BD00BF2E
:1009C00080B5A0B000AF13460246FA800A46BA804E
:1009D000FB704FF0000387F87F304FF0000387F87B
:1009E0007E3040F20203C2F200031B889BB2082B48
:1009F00078D14FF0000387F87D3007F16C02FB7867
:100A00001046194603F078F94FF0000387F87F305D
:100A100064E097F87F3007F18002D31813F8143C94
:100A200087F87D304FF0000387F87E304CE097F870
:100A30007D2097F87E30C3F1070342FA03F303F0F9
:100A40000103002B1DD097F87E309AB2FB88D31893
:100A50009BB299B297F87F309AB2BB88D3189BB2F9
:100A60009AB240F21C03C2F200031B889BB29BB2F5
:100A700009B212B21BB2084611461A46FFF77AFFB6
:100A80001CE097F87E309AB2FB88D3189BB299B2DB
:100A900097F87F309AB2BB88D3189BB29AB240F2D3
:100AA0000003C2F200031B889BB29BB209B212B2D0
:100AB0001BB2084611461A46FFF75CFF97F87E30D6
:100AC00003F1010387F87E3097F87E30072BAED90B
:100AD00097F87F3003F1010387F87F3097F87F3074
:100AE000072B96D940F20203C2F200031B889BB287
:100AF0000C2B78D14FF0000387F87C3007F16002AF
:100B0000FB781046194603F011F94FF0000387F8FF
:100B10007F3064E097F87F3007F18002D31813F834
:100B2000203C87F87C304FF0000387F87E304CE0A3
:100B300097F87C2097F87E30C3F1070342FA03F35D
:100B400003F00103002B1DD097F87E309AB2FB888A
:100B5000D3189BB299B297F87F309AB2BB88D3185A
:100B60009BB29AB240F21C03C2F200031B889BB2F4
:100B70009BB209B212B21BB2084611461A46FFF7E1
:100B8000F9FE1CE097F87E309AB2FB88D3189BB22E
:100B900099B297F87F309AB2BB88D3189BB29AB2B9
:100BA00040F20003C2F200031B889BB29BB209B261
:100BB00012B21BB2084611461A46FFF7DBFE97F841
:100BC0007E3003F1010387F87E3097F87E30072BE3
:100BD000AED997F87F3003F1010387F87F3097F89B
:100BE0007F300B2B96D940F20203C2F200031B8820
:100BF0009BB2102B78D14FF0000387F87B3007F1C0
:100C00005002FB781046194603F0CEF84FF000036F
:100C100087F87F3064E097F87F3007F18002D318BF
:100C200013F8303C87F87B304FF0000387F87E30B4
:100C30004CE097F87B2097F87E30C3F1070342FA27
:100C400003F303F00103002B1DD097F87E309AB216
:100C5000FB88D3189BB299B297F87F309AB2BB88C1
:100C6000D3189BB29AB240F21C03C2F200031B8855
:100C70009BB29BB209B212B21BB2084611461A4689
:100C8000FFF778FE1CE097F87E309AB2FB88D31805
:100C90009BB299B297F87F309AB2BB88D3189BB2B7
:100CA0009AB240F20003C2F200031B889BB29BB2CF
:100CB00009B212B21BB2084611461A46FFF75AFE95
:100CC00097F87E3003F1010387F87E3097F87E3085
:100CD000072BAED997F87F3003F1010387F87F30F7
:100CE00097F87F300F2B96D940F20203C2F200032F
:100CF0001B889BB20E2B78D14FF00003A7F87830F9
:100D000007F13802FB781046194603F02FF84FF030
:100D1000000387F87F3064E097F87F304FEA4303A1
:100D200007F18002D31833F8483CA7F878304FF029
:100D3000000387F87E304AE0B7F8782097F87E30D5
:100D400042FA03F303F00103002B1DD097F87E3025
:100D50009AB2FB88D3189BB299B297F87F309AB2B7
:100D6000BB88D3189BB29AB240F21C03C2F20003B4
:100D70001B889BB29BB209B212B21BB20846114645
:100D80001A46FFF7F7FD1CE097F87E309AB2FB8811
:100D9000D3189BB299B297F87F309AB2BB88D31818
:100DA0009BB29AB240F20003C2F200031B889BB2CE
:100DB0009BB209B212B21BB2084611461A46FFF79F
:100DC000D9FD97F87E3003F1010387F87E3097F85C
:100DD0007E300B2BB0D997F87F3003F1010387F8F1
:100DE0007F3097F87F300B2B96D940F20203C2F286
:100DF00000031B889BB2182B78D14FF00003A7F893
:100E0000763007F10802FB781046194602F0EAFF37
:100E10004FF0000387F87F3064E097F87F304FEAA7
:100E2000430307F18002D31833F8783CA7F87630F3
:100E30004FF0000387F87E304AE0B7F8762097F845
:100E40007E3042FA03F303F00103002B1DD097F824
:100E50007E309AB2FB88D3189BB299B297F87F3054
:100E60009AB2BB88D3189BB29AB240F21C03C2F26A
:100E700000031B889BB29BB209B212B21BB2084698
:100E800011461A46FFF776FD1CE097F87E309AB2BD
:100E9000FB88D3189BB299B297F87F309AB2BB887F
:100EA000D3189BB29AB240F20003C2F200031B882F
:100EB0009BB29BB209B212B21BB2084611461A4647
:100EC000FFF758FD97F87E3003F1010387F87E3075
:100ED00097F87E300F2BB0D997F87F3003F10103DC
:100EE00087F87F3097F87F30172B96D907F1800766
:100EF000BD4680BD80B584B000AF0B463A60024667
:100F0000FA80BB803B681B78FB733B6803F10103ED
:100F10003B60FA88BB8811B21AB2FB7B08461146C7
:100F20001A46FFF74DFDFB88E72B1DD8FB8803F120
:100F30000803FB8040F20203C2F200031B889BB24D
:100F4000182B04D1FB8803F10803FB801FE040F25B
:100F50000203C2F200031B889BB20E2B17D1FB8841
:100F600003F10403FB8012E0BA8840F22F139A4287
:100F700007D84FF00003FB80BB8803F11003BB8050
:100F800005E04FF00003FB804FF00003BB803B689F
:100F90001B78002BB6D107F11007BD4680BD00BFFE
:100FA00080B582B000AF4FF078004FF0010102F041
:100FB000FBFD4FF001004FF0010102F01FFE4FF466
:100FC0004060C4F202004FF000014FF00C0203F049
:100FD0009BF84FF44060C4F202004FF001014FF063
:100FE0000C0203F091F84FF44060C4F202004FF09D
:100FF00004014FF00C0203F087F84FF44060C4F294
:1010000002004FF005014FF00C0203F07DF84FF4A1
:101010004060C4F202004FF007014FF00C0203F0F1
:1010200073F84FF44060C4F202004FF008014FF033
:101030000C0203F069F84FF44060C4F202004FF074
:1010400009014FF00C0203F05FF84FF44060C4F266
:1010500002004FF00A014FF00C0203F055F84FF474
:101060004060C4F202004FF00B014FF00C0203F09D
:101070004BF84FF44060C4F202004FF00E014FF005
:101080000C0203F041F84FF44060C4F202004FF04C
:101090000F014FF00C0203F037F84FF48050C4F208
:1010A00002004FF007014FF00C0203F02DF84FF44F
:1010B0008050C4F202004FF008014FF00C0203F020
:1010C00023F84FF48050C4F202004FF009014FF0B2
:1010D0000C0203F019F84FF48050C4F202004FF0F4
:1010E0000A014FF00C0203F00FF84FF48050C4F2E5
:1010F00002004FF00B014FF00C0203F005F84FF423
:101100008050C4F202004FF00C014FF00C0202F0CC
:10111000FBFF4FF48050C4F202004FF00D014FF07E
:101120000C0202F0F1FF4FF48050C4F202004FF0C5
:101130000E014FF00C0202F0E7FF4FF48050C4F2B2
:1011400002004FF00F014FF00C0202F0DDFF4CF6F1
:10115000B3733B604FF002033B714FF003037B71AD
:101160004FF00003BB714FF00003FB713B464FF49F
:101170004060C4F20200194602F024FF4FF680736B
:101180003B604FF002033B714FF003037B714FF064
:101190000003BB714FF00003FB713B464FF48050DE
:1011A000C4F20200194602F00DFF07F10807BD4620
:1011B00080BD00BF80B596B000AF4FF000033B602C
:1011C0004FF000037B604FF00203BB604FF0000361
:1011D000FB604FF001033B614FF000037B614FF078
:1011E0000003BB614FF00003FB614FF000033B6263
:1011F0004FF000037B624FF01003BB624FF000031F
:10120000FB624FF000037B634FF00003BB634FF0C2
:101210000003FB634FF480533B644FF000037B6497
:101220004FF000033B634FF00003BB644FF4002317
:10123000FB643B463B6507F11C03184602F0F0FDDA
:101240004FF000033B604FF000037B604FF004035E
:10125000BB604FF00003FB604FF001033B614FF0B8
:1012600000037B614FF00003BB613B467B6507F1E8
:101270001C03184602F0D4FD4FF000004FF00101AE
:1012800002F076FE07F15807BD4680BD80B582B0FA
:1012900000AF78607B68642B03DD4FF064037B60F4
:1012A00005E07B68002B02DA4FF000037B6040F220
:1012B0001E03C2F200031B8803F1FF337A6802FBAE
:1012C00003F248F21F53C5F2EB13A3FB02134FEADC
:1012D00053139AB240F22003C2F200031A8040F284
:1012E0001E03C2F200031B881A4640F27403C2F2C6
:1012F00000035A6040F22003C2F200031B881A4622
:1013000040F28003C2F200039A604FF00000C4F282
:10131000010040F28001C2F2000104F04FFE07F12B
:101320000807BD4680BD00BF80B582B000AF4FF05A
:1013300001004FF0010102F037FC4FF480633B6085
:101340004FF002033B714FF003037B714FF000033A
:10135000BB714FF00103FB713B464FF00000C4F23C
:101360000200194602F02EFE4FF00000C4F2020007
:101370004FF00A014FF0010202F0C6FE40F20403F2
:10138000C2F200031A6843F60D23CEF6B863A3FB3E
:1013900002134FEA93339BB203F1FF339AB240F248
:1013A0001E03C2F200031A8040F21E03C2F20003C1
:1013B0001B8803F1FF3213464FEA43039B184FEAA1
:1013C00043129B181A4648F21F53C5F2EB13A3FBB6
:1013D00002134FEA53139AB240F22003C2F2000301
:1013E0001A804FF001004FF0010102F031FC40F291
:1013F0007403C2F200034FF000021A8040F274033B
:10140000C2F200034FF000025A8040F21E03C2F203
:1014100000031B881A4640F27403C2F200035A60AC
:1014200040F27403C2F200034FF000021A8140F24E
:101430007403C2F200034FF000029A724FF00000F2
:10144000C4F2010040F27401C2F2000104F01CFD7C
:1014500040F28003C2F200034FF070021A8040F2A3
:101460008003C2F200034FF001025A8040F2800371
:10147000C2F200034FF004029A8040F28003C2F2ED
:1014800000034FF002029A8140F28003C2F200038F
:101490004FF00002DA8140F28003C2F200034FF401
:1014A00080721A8240F28003C2F200034FF0000201
:1014B0005A8240F22003C2F200031B881A4640F20F
:1014C0008003C2F200039A604FF00000C4F20100F2
:1014D00040F28001C2F2000104F070FD4FF0000004
:1014E000C4F201004FF0010104F048FD4FF000008C
:1014F000C4F201004FF0010104F0F0FD07F108070C
:10150000BD4680BD80B582B000AF4FF00003FB71D7
:1015100002F084F9FEF75CFE00F06EF80346FB7102
:10152000FB79DBB2002B02D0FB79DBB25FE000F08D
:1015300029FA0346FB71FB79DBB2002B02D0FB7961
:10154000DBB254E040F20813C2F200034FF0000295
:101550001A7540F20813C2F200034FF000021A603D
:1015600040F20813C2F200034FF000025A6040F24A
:101570000813C2F200034FF000029A6040F2081311
:10158000C2F200034FF00002DA6040F20813C2F228
:1015900000034FF000021A6140F20810C2F200008E
:1015A000FEF726FE40F2B000C2F2000000F024FB7D
:1015B0000346FB71FB79DBB2002B0CD140F2B00388
:1015C000C2F20003B3F854304FEA0343184600F068
:1015D0005BFF0346FB71FB79DBB2002B05D14FF4B7
:1015E000006000F0A3FE0346FB71FB79DBB21846F6
:1015F00007F10807BD4680BD80B586B000AF4FF04B
:101600000003FB714FF000037B614FF000033B616F
:101610004FF00003FB604FF00003BB6040F2081383
:10162000C2F200034FF076021A7540F20813C2F2BC
:1016300000034FF000021A6040F20813C2F20003E8
:101640004FF000025A6040F20813C2F200034FF05C
:1016500000029A6040F20813C2F200034FF0000249
:10166000DA6040F20813C2F200034FF000021A6180
:1016700040F20810C2F20000FEF7BAFD4FF003007E
:10168000FEF7FAFD4FF00100FEF7E6FD40F2980389
:10169000C2F200034FF000021A6040F29803C2F257
:1016A00000034FF000025A6040F29803C2F20003B8
:1016B0004FF000029A6040F29803C2F200034FF02C
:1016C0000002DA6040F29803C2F200034FF4806235
:1016D0001A6140F29800C2F20000FEF7EBFD01F043
:1016E00003FB0346FB71FB79DBB2002B02D0FB79D5
:1016F000DBB242E140F29803C2F200034FF4D5722C
:101700001A6040F29803C2F200034FF008025A60D8
:1017100040F29803C2F200034FF040029A6040F298
:101720009803C2F200034FF00002DA6040F298031F
:10173000C2F200034FF480621A6140F29800C2F2D4
:101740000000FEF7B7FD01F0F9FA0346FB71FB79E3
:10175000DBB2002B0AD140F22403C2F200034FF0A7
:1017600001021A604FF08043BB602EE040F2980304
:10177000C2F200034FF000021A6040F29803C2F276
:1017800000034FF037025A6040F29803C2F20003A0
:101790004FF040029A6040F29803C2F200034FF00B
:1017A0000002DA6040F29803C2F200034FF4806254
:1017B0001A6140F29800C2F20000FEF77BFD4FF084
:1017C000370001F003FB0346FB7140F29803C2F2BD
:1017D00000034FF000021A6040F29803C2F20003C7
:1017E0004FF037025A6040F29803C2F200034FF004
:1017F00040029A6040F29803C2F200034FF00002E8
:10180000DA6040F29803C2F200034FF480621A617A
:1018100040F29800C2F20000FEF74CFD4FF0370096
:1018200001F0D4FA0346FB71FB79DBB2002B40F0E8
:10183000A2807EE040F29803C2F200034FF0000263
:101840001A6040F29803C2F200034FF037025A6068
:1018500040F29803C2F200034FF040029A6040F257
:101860009803C2F200034FF00002DA6040F29803DE
:10187000C2F200034FF480621A6140F29800C2F293
:101880000000FEF717FD4FF0370001F09FFA034606
:10189000FB71FB79DBB2002B02D0FB79DBB26CE091
:1018A000BB6843F0004242F4801240F29803C2F257
:1018B00000031A6040F29803C2F200034FF02902BD
:1018C0005A6040F29803C2F200034FF040029A605F
:1018D00040F29803C2F200034FF00002DA6040F2D7
:1018E0009803C2F200034FF480621A6140F298003C
:1018F000C2F20000FEF7DEFC01F058FB0346FB716C
:10190000FB79DBB2002B02D0FB79DBB235E04FF084
:101910000000FEF70FFD78617B694FEAD373012B5E
:1019200014BF00230123DBB2FB603B6903F1010319
:101930003B61FB68002B05D13A694FF6FE739A4272
:101940007FF678AF3A694FF6FE739A4205D94FF0A9
:101950001B03FB71FB79DBB20FE07B6903F0804373
:101960007B617B69002B06D040F22403C2F20003A6
:101970004FF002021A60FB79DBB2184607F1180734
:10198000BD4680BD80B582B000AF4FF00003FB7153
:101990004FF00103BB80FEF77FFC0346002B04D110
:1019A0004FF02503FB71FB7921E140F22403C2F2E1
:1019B00000031B68042B59D040F29803C2F20003C5
:1019C0004FF000021A6040F29803C2F200034FF099
:1019D00002025A6040F29803C2F200034FF0C002C4
:1019E0009A6040F29803C2F200034FF00002DA60FE
:1019F00040F29803C2F200034FF480621A6140F291
:101A00009800C2F20000FEF755FC01F0FFFA034611
:101A1000FB71FB79002B01D0FB79E8E04FF000006F
:101A2000FEF788FC024640F23803C2F200031A6057
:101A30004FF00400FEF77EFC024640F23803C2F28B
:101A400000035A604FF00800FEF774FC024640F2B3
:101A50003803C2F200039A604FF00C00FEF76AFCF4
:101A6000024640F23803C2F20003DA6040F2240377
:101A7000C2F200031B68002B14D040F22403C2F210
:101A800000031B68012B0DD040F22403C2F20003B7
:101A90001B68062B06D040F22403C2F200031B6829
:101AA000022B36D140F29803C2F200034FF000023D
:101AB0001A6040F29803C2F200034FF003025A602A
:101AC00040F29803C2F200034FF040029A6040F2E5
:101AD0009803C2F200034FF00002DA6040F298036C
:101AE000C2F200034FF480621A6140F29800C2F221
:101AF0000000FEF7DFFB07F104034FF00300194677
:101B000001F0C2FA0346FB71FB79002B01D0FB798F
:101B10006DE040F22403C2F200031B68042B62D084
:101B2000BB881A4640F24803C2F200031A60BB8821
:101B30004FEA03431A4640F29803C2F200031A60C8
:101B400040F29803C2F200034FF009025A6040F2DB
:101B50009803C2F200034FF0C0029A6040F298036B
:101B6000C2F200034FF00002DA6040F29803C2F2C2
:101B700000034FF480621A6140F29800C2F2000044
:101B8000FEF798FB01F042FA0346FB71FB79002B4C
:101B900001D0FB792BE04FF00000FEF7CBFB0246B3
:101BA00040F22803C2F200031A604FF00400FEF76F
:101BB000C1FB024640F22803C2F200035A604FF014
:101BC0000800FEF7B7FB024640F22803C2F200030A
:101BD0009A604FF00C00FEF7ADFB024640F228037E
:101BE000C2F20003DA604FF00003FB71FB79184684
:101BF00007F10807BD4680BDB0B485B000AF78607E
:101C00004FF00001B9734FF00001F97340F2240165
:101C1000C2F200010968C8B2796881F8560040F242
:101C20004801C2F20001096888B27968A1F854003D
:101C300040F22801C2F2000109684FEA1161F9730C
:101C4000F97B4FEA9111C8B279680870F97B01F00D
:101C50003C014FEAA101C8B279684870F97B01F0F4
:101C60000301C8B27968887040F22801C2F200010D
:101C7000096801F47F014FEA1141F9737968F87B33
:101C8000C87040F22801C2F20001096801F47F41E6
:101C90004FEA1121F9737968F87B087140F2280145
:101CA000C2F200010968F9737968F87B487140F263
:101CB0002801C2F2000149684FEA1161F973F97B0A
:101CC00089B24FEA011188B27968C88040F22801D0
:101CD000C2F20001496801F47F014FEA1141F97332
:101CE0007968C98888B2F97B4FEA1111C9B20143FA
:101CF00088B27968C880F97B01F00F01C8B27968B1
:101D0000087240F22801C2F20001496801F47F41E3
:101D10004FEA1121F973F97B4FEAD111C8B2796802
:101D20004872F97B01F040014FEAA111C8B279680D
:101D30008872F97B01F020014FEA6111C8B279681D
:101D4000C872F97B01F010014FEA2111C8B279681D
:101D5000087379684FF00000487340F22401C2F222
:101D600000010968002907D040F22401C2F20001F5
:101D70000968012940F0AF80FB7B03F003034FEAC1
:101D800083231A467B681A6140F22803C2F20003DB
:101D90005B68FB737B681A69FB7B4FEA83031A431A
:101DA0007B681A6140F22803C2F200039B684FEA85
:101DB0001363FB737B681A69FB7B4FEA9313DBB2F7
:101DC0001A437B681A61FB7B03F038034FEAE30395
:101DD000DAB27B681A75FB7B03F00703DAB27B6823
:101DE0005A7540F22803C2F200039B6803F47F0394
:101DF0004FEA1343FB73FB7B4FEA5313DAB27B6862
:101E00009A75FB7B03F01C034FEAA303DAB27B68ED
:101E1000DA75FB7B03F00303DBB24FEA4303DAB26C
:101E20007B681A7640F22803C2F200039B6803F431
:101E30007F434FEA1323FB737B681B7EDAB2FB7B85
:101E40004FEAD313DBB21343DAB27B681A767B68AE
:101E50001B6903F101010A464FF000037968C1E9EB
:101E600012237B68D3E912017B681B7EDBB203F18E
:101E700002034FF0010202FA03F422464FEAE27332
:101E800002FB01F500FB03F42C19A0FB0223E1186F
:101E90000B467968C1E912237B681B7ADBB24FF0ED
:101EA000010202FA03F31A467B681A657B68D3E9DC
:101EB00012017B681C6D22464FF0000302FB01F506
:101EC00000FB03F42C19A0FB0223E1180B467968F0
:101ED000C1E9122353E040F22401C2F20001096873
:101EE00002294CD140F22801C2F200014968F9737D
:101EF000F97B01F03F014FEA01410846796808612A
:101F000040F22801C2F2000189684FEA1161F973B9
:101F100079680869F97B4FEA01210843796808610B
:101F200040F22801C2F20001896801F47F014FEA02
:101F30001141F97379680869F97B08437968086188
:101F400040F22801C2F20001896801F47F414FEAA2
:101F50001121F9737968096901F1010420464FF0F4
:101F600000014FEA50344FEAC14323434FEAC042D5
:101F70007968C1E912237B684FF400721A65FB7B14
:101F800003F040034FEAA313DAB27B685A76FB7B77
:101F900003F03F03DBB24FEA4303DAB27B689A7681
:101FA00040F22803C2F200039B68FB737B689B7EB0
:101FB000DAB2FB7B4FEAD313DBB21343DAB27B68AE
:101FC0009A76FB7B03F07F03DAB27B68DA7640F225
:101FD0002803C2F20003DB684FEA1363FB73FB7B49
:101FE0004FEAD313DAB27B681A77FB7B03F0600306
:101FF0004FEA6313DAB27B685A77FB7B03F01C036A
:102000004FEAA303DAB27B689A77FB7B03F0030302
:10201000DBB24FEA8303DAB27B68DA7740F2280357
:10202000C2F20003DB6803F47F034FEA1343FB7340
:102030007B68DB7FDAB2FB7B4FEA9313DBB213439F
:10204000DAB27B68DA77FB7B03F020034FEA631395
:10205000DAB27B6883F820207B684FF0000283F8B7
:102060002120FB7B03F00103DAB27B6883F8222096
:1020700040F22803C2F20003DB6803F47F434FEA17
:102080001323FB73FB7B4FEAD313DAB27B6883F82D
:102090002320FB7B03F040034FEAA313DAB27B68F3
:1020A00083F82420FB7B03F020034FEA6313DAB2AA
:1020B0007B6883F82520FB7B03F010034FEA231392
:1020C000DAB27B6883F82620FB7B03F00C034FEA2F
:1020D000A303DAB27B6883F82720FB7B03F00303BA
:1020E000DAB27B6883F8282040F22803C2F20003AA
:1020F000DB68FB73FB7B4FEA5303DAB27B6883F840
:1021000029207B684FF0010283F82A2040F238032F
:10211000C2F200031B684FEA1363FB737B68FA7B10
:1021200083F82C2040F23803C2F200031B6803F44A
:102130007F034FEA1343FB73FB7B9BB24FEA0323FE
:102140009AB27B68DA8540F23803C2F200031B685A
:1021500003F47F434FEA1323FB737B68DB8D9AB252
:10216000FB7B9BB213439AB27B68DA8540F238035B
:10217000C2F200031B68FB73FB7B4FEA03631A4642
:102180007B681A6340F23803C2F200035B684FEACF
:102190001363FB737B681A6BFB7B4FEA03431A43A1
:1021A0007B681A6340F23803C2F200035B6803F4F1
:1021B0007F034FEA1343FB737B681A6BFB7B4FEA89
:1021C00003231A437B681A6340F23803C2F2000308
:1021D0005B6803F47F434FEA1323FB737B681A6B3E
:1021E000FB7B1A437B681A6340F23803C2F2000398
:1021F0005B68FB737B68FA7B83F8342040F238031A
:10220000C2F200039B684FEA1363FB737B68FA7B9F
:1022100083F8352040F23803C2F200039B6803F4D0
:102220007F034FEA1343FB73FB7B4FEA03631A46BA
:102230007B689A6340F23803C2F200039B6803F4A0
:102240007F434FEA1323FB737B689A6BFB7B4FEA58
:1022500003431A437B689A6340F23803C2F20003D7
:102260009B68FB737B689A6BFB7B4FEA03231A43E3
:102270007B689A6340F23803C2F20003DB684FEADE
:102280001363FB737B689A6BFB7B1A437B689A63CF
:1022900040F23803C2F20003DB6803F47F034FEA25
:1022A0001343FB737B6893F83C30DAB2FB7B4FEA55
:1022B0001313DBB21343DAB27B6883F83C20FB7B59
:1022C0009BB203F00F039BB24FEA03239AB27B68E1
:1022D000DA8740F23803C2F20003DB6803F47F437D
:1022E0004FEA1323FB737B68DB8F9AB2FB7B9BB2B5
:1022F00013439AB27B68DA8740F23803C2F20003D4
:10230000DB68FB73FB7B4FEA5303DAB27B6883F82D
:1023100040207B684FF0010283F84120BB7B1846C8
:1023200007F11407BD46B0BC704700BF80B584B04C
:1023300000AF78604FF00003FB7340F22403C2F259
:1023400000031B68032B04D14FF02703FB73FB7BB7
:1023500095E040F22403C2F200031B68002B0DD06D
:1023600040F22403C2F200031B68012B06D040F2A6
:102370002403C2F200031B68022B7FD17B68B3F5F4
:10238000805F04D14FF02703FB73FB7B77E07B6812
:10239000B3F5006F39D14FF0010000F0EBFE0346BA
:1023A000FB73FB7B002B69D140F20813C2F20003E0
:1023B0004FF000021A7540F20813C2F200034FF00A
:1023C00000021A6040F20813C2F200034FF000024C
:1023D0005A6040F20813C2F200034FF000029A6004
:1023E00040F20813C2F200034FF40062DA6040F2D8
:1023F0000813C2F200034FF000021A6140F2081005
:10240000C2F20000FDF7F4FE38E04FF0000000F0EB
:10241000B1FE0346FB73FB7B002B2FD140F2081368
:10242000C2F200034FF000021A7540F20813C2F224
:1024300000034FF000021A6040F20813C2F20003DA
:102440004FF000025A6040F20813C2F200034FF04E
:1024500000029A6040F20813C2F200034FF000023B
:10246000DA6040F20813C2F200034FF000021A6172
:1024700040F20810C2F20000FDF7BAFEFB7B1846DE
:1024800007F11007BD4680BD80B584B000AF78600D
:102490004FF00003FB7340F29803C2F200037A6826
:1024A0001A6040F29803C2F200034FF007025A602C
:1024B00040F29803C2F200034FF040029A6040F2EB
:1024C0009803C2F200034FF00002DA6040F2980372
:1024D000C2F200034FF480621A6140F29800C2F227
:1024E0000000FDF7E7FE4FF0070000F06FFC034629
:1024F000FB73FB7B184607F11007BD4680BD00BF8C
:1025000080B586B000AFF860B9601346FB804FF02D
:102510000003FB7540F26003C2F200034FF00002BB
:102520001A7040F26403C2F200034FF000021A6016
:1025300040F25C03C2F200034FF000021A604FF455
:102540003053C4F201034FF00002DA6240F2240378
:10255000C2F200031B68022B06D14FF40073FB800C
:10256000BB684FEA5323BB60FA8840F29803C2F27B
:1025700000031A6040F29803C2F200034FF0100209
:102580005A6040F29803C2F200034FF040029A6092
:1025900040F29803C2F200034FF00002DA6040F20A
:1025A0009803C2F200034FF480621A6140F298006F
:1025B000C2F20000FDF77EFE4FF0100000F006FCB6
:1025C0000346FB75FB7D002B01D0FB7D71E040F2E3
:1025D0002013C2F200034FF0FF321A60FA8840F273
:1025E0002013C2F200035A6040F22013C2F200032B
:1025F0004FF090029A6040F22013C2F200034FF0B5
:102600000202DA6040F22013C2F200034FF000022F
:102610001A6140F22013C2F200034FF001025A6126
:1026200040F22010C2F20000FDF79AFE40F298033B
:10263000C2F20003BA681A6040F29803C2F20003C3
:102640004FF011025A6040F29803C2F200034FF0BB
:1026500040029A6040F29803C2F200034FF0000279
:10266000DA6040F29803C2F200034FF480621A610C
:1026700040F29800C2F20000FDF71CFE4FF011007E
:1026800000F0A4FB0346FB75FB7D002B01D0FB7D16
:102690000FE040F22A304FF00101FDF7B5FE4FF098
:1026A0000100FDF7A1FEFB88F868194601F0BCF9AE
:1026B000FB7D184607F11807BD4680BD80B586B082
:1026C00000AFF860B9603B601346FB804FF0000339
:1026D000FB7540F26003C2F200034FF000021A7073
:1026E00040F26403C2F200034FF000021A6040F2AD
:1026F0005C03C2F200034FF001021A604FF4305342
:10270000C4F201034FF00002DA6240F22403C2F285
:1027100000031B68022B06D14FF40073FB80BB68DB
:102720004FEA5323BB60FA8840F29803C2F20003D9
:102730001A6040F29803C2F200034FF010025A6090
:1027400040F29803C2F200034FF040029A6040F258
:102750009803C2F200034FF00002DA6040F29803DF
:10276000C2F200034FF480621A6140F29800C2F294
:102770000000FDF79FFD4FF0100000F027FB03461F
:10278000FB75FB7D002B01D0FB7D77E040F2201331
:10279000C2F200034FF0FF321A60FB883A6802FB76
:1027A00003F240F22013C2F200035A6040F22013F9
:1027B000C2F200034FF090029A6040F22013C2F27E
:1027C00000034FF00202DA6040F22013C2F200036D
:1027D0004FF000021A6140F22013C2F200034FF0E2
:1027E00001025A6140F22010C2F20000FDF7B8FD6C
:1027F00040F29803C2F20003BA681A6040F29803EC
:10280000C2F200034FF012025A6040F29803C2F283
:1028100000034FF040029A6040F29803C2F20003B6
:102820004FF00002DA6040F29803C2F200034FF466
:1028300080621A6140F29800C2F20000FDF73AFD92
:102840004FF0120000F0C2FA0346FB75FB7D002B2F
:1028500001D0FB7D12E040F22A304FF00101FDF77C
:10286000D3FD4FF00100FDF7BFFDFB883A6802FB86
:1028700003F3F868194601F0D7F8FB7D184607F115
:102880001807BD4680BD00BF80B586B000AFF860B8
:10289000B9601346FB804FF00003FB7540F2600304
:1028A000C2F200034FF000021A7040F26403C2F259
:1028B00000034FF000021A6040F25C03C2F2000312
:1028C0004FF000021A604FF43053C4F201034FF08E
:1028D0000002DA6240F22403C2F200031B68022BFA
:1028E00006D14FF40073FB80BB684FEA5323BB60F3
:1028F000FA8840F29803C2F200031A6040F298038B
:10290000C2F200034FF010025A6040F29803C2F284
:1029100000034FF040029A6040F29803C2F20003B5
:102920004FF00002DA6040F29803C2F200034FF465
:1029300080621A6140F29800C2F20000FDF7BAFC12
:102940004FF0100000F042FA0346FB75FB7D002BB0
:1029500001D0FB7D71E040F29803C2F20003BA6837
:102960001A6040F29803C2F200034FF018025A6056
:1029700040F29803C2F200034FF040029A6040F226
:102980009803C2F200034FF00002DA6040F29803AD
:10299000C2F200034FF480621A6140F29800C2F262
:1029A0000000FDF787FC4FF0180000F00FFA034617
:1029B000FB75FB7D002B01D0FB7D3EE040F2201338
:1029C000C2F200034FF0FF321A60FA8840F220137F
:1029D000C2F200035A6040F22013C2F200034FF02B
:1029E00090029A6040F22013C2F200034FF00002FE
:1029F000DA6040F22013C2F200034FF000021A61C5
:102A000040F22013C2F200034FF001025A6140F27B
:102A10002010C2F20000FDF7A3FC40F22A304FF074
:102A20000101FDF7F1FCFB88F868194600F08CFF06
:102A30004FF00100FDF7D8FCFB7D184607F11807A1
:102A4000BD4680BD80B586B000AFF860B9603B6020
:102A50001346FB804FF00003FB7540F26003C2F2A7
:102A600000034FF000021A7040F26403C2F2000348
:102A70004FF000021A6040F25C03C2F200034FF014
:102A800001021A604FF43053C4F201034FF0000208
:102A9000DA6240F22403C2F200031B68022B06D163
:102AA0004FF40073FB80BB684FEA5323BB60FA8886
:102AB00040F29803C2F200031A6040F29803C2F297
:102AC00000034FF010025A6040F29803C2F2000374
:102AD0004FF040029A6040F29803C2F200034FF0B8
:102AE0000002DA6040F29803C2F200034FF4806201
:102AF0001A6140F29800C2F20000FDF7DBFB4FF0D4
:102B0000100000F063F90346FB75FB7D002B01D03C
:102B1000FB7DE3E040F24803C2F200031B684FEA8A
:102B2000034240F29803C2F200031A6040F2980395
:102B3000C2F200034FF037025A6040F29803C2F22B
:102B400000034FF040029A6040F29803C2F2000383
:102B50004FF00002DA6040F29803C2F200034FF433
:102B600080621A6140F29800C2F20000FDF7A2FBF9
:102B70004FF0370000F02AF90346FB75FB7D002B70
:102B800001D0FB7DAAE040F29803C2F200033A684C
:102B90001A6040F29803C2F200034FF017025A6025
:102BA00040F29803C2F200034FF040029A6040F2F4
:102BB0009803C2F200034FF00002DA6040F298037B
:102BC000C2F200034FF480621A6140F29800C2F230
:102BD0000000FDF76FFB4FF0170000F0F7F8034619
:102BE000FB75FB7D002B01D0FB7D77E040F2980365
:102BF000C2F20003BA681A6040F29803C2F20003FE
:102C00004FF019025A6040F29803C2F200034FF0ED
:102C100040029A6040F29803C2F200034FF00002B3
:102C2000DA6040F29803C2F200034FF480621A6146
:102C300040F29800C2F20000FDF73CFB4FF0190093
:102C400000F0C4F80346FB75FB7D002B01D0FB7D33
:102C500044E040F22013C2F200034FF0FF321A604A
:102C6000FB883A6802FB03F240F22013C2F2000331
:102C70005A6040F22013C2F200034FF090029A60B3
:102C800040F22013C2F200034FF00002DA6040F27B
:102C90002013C2F200034FF000021A6140F2201329
:102CA000C2F200034FF001025A6140F22010C2F25A
:102CB0000000FDF755FB40F22A304FF00101FDF70F
:102CC000A3FB4FF00100FDF78FFBFB883A6802FB86
:102CD00003F3F868194600F037FEFB7D184607F14C
:102CE0001807BD4680BD00BF80B582B000AF4FF071
:102CF0000003FB704FF480337B6003E07B6803F1DB
:102D0000FF337B607B68002B06D04FF08000FDF71F
:102D1000A5FB0346002BF1D07B68002B04D14FF0BC
:102D20000303FB70FB7804E040F2FF50FDF7B4FBB7
:102D3000FB78184607F10807BD4680BD80B584B012
:102D400000AF4FF00003FB714FF48033BB604FF4D2
:102D50003053C4F201035B6BFB6009E0BB6803F115
:102D6000FF33BB604FF43053C4F201035B6BFB6075
:102D7000FB6803F04503002B02D1BB68002BEDD1AB
:102D8000BB68002B04D0FB6803F00403002B08D0C1
:102D90004FF00303FB714FF00400FDF77DFBFB795F
:102DA0000EE0FB6803F04003002B08D04FF0000357
:102DB000FB714FF04000FDF76FFBFB7900E0FB7902
:102DC000184607F11007BD4680BD00BF80B586B02C
:102DD00000AF0346FB714FF00003FB744FF4305318
:102DE000C4F201035B6B7B6105E04FF43053C4F226
:102DF00001035B6B7B617B6903F04503002BF4D01F
:102E00007B6903F00403002B08D04FF00303FB742D
:102E10004FF00400FDF740FBFB7CC2E07B6903F050
:102E20000103002B08D04FF00103FB744FF00100A9
:102E3000FDF732FBFB7CB4E0FDF770FA0346FA794C
:102E40009A4204D04FF01003FB74FB7CA9E040F2DF
:102E5000FF50FDF721FB4FF00000FDF76BFAF86023
:102E6000FA684EF20803CFF6FF531340002B01D14E
:102E7000FB7C96E0FB68002B02DA4FF01C0390E02D
:102E8000FB6803F08043002B02D04FF0090388E079
:102E9000FB6803F00053002B02D04FF00A0380E0E0
:102EA000FB6803F08053002B02D04FF00B0378E057
:102EB000FB6803F00063002B02D04FF00C0370E0BE
:102EC000FB6803F08063002B02D04FF00D0368E035
:102ED000FB6803F08073002B02D04FF00E0360E01C
:102EE000FB6803F40003002B02D04FF00F0358E0FF
:102EF000FB6803F48003002B02D04FF0100350E076
:102F0000FB6803F40013002B02D04FF0110348E0DC
:102F1000FB6803F48013002B02D04FF0120340E053
:102F2000FB6803F40023002B02D04FF0130338E0BA
:102F3000FB6803F48023002B02D04FF0140330E031
:102F4000FB6803F40033002B02D04FF0150328E098
:102F5000FB6803F48033002B02D04FF0160320E00F
:102F6000FB6803F40043002B02D04FF0170318E076
:102F7000FB6803F48043002B02D04FF0180310E0ED
:102F8000FB6803F40053002B02D04FF0190308E054
:102F9000FB6803F00803002B02D04FF01A0300E097
:102FA000FB7C184607F11807BD4680BD80B582B08E
:102FB00000AF4FF00003FB704FF43053C4F2010335
:102FC0005B6B7B6005E04FF43053C4F201035B6B35
:102FD0007B607B6803F04503002BF4D07B6803F033
:102FE0000403002B08D04FF00303FB704FF00400E4
:102FF000FDF752FAFB7804E040F2FF50FDF74CFA7F
:10300000FB78184607F10807BD4680BD80B582B041
:1030100000AF4FF00003FB704FF43053C4F20103D4
:103020005B6B7B6005E04FF43053C4F201035B6BD4
:103030007B607B6803F04503002BF4D07B6803F0D2
:103040000403002B08D04FF00303FB704FF0040083
:10305000FDF722FAFB7812E07B6803F00103002BF6
:1030600008D04FF00103FB704FF00100FDF714FA98
:10307000FB7804E040F2FF50FDF70EFAFB781846AB
:1030800007F10807BD4680BD80B586B000AF034696
:103090003960FB714FF00003FB744FF43053C4F2FE
:1030A00001035B6B7B6105E04FF43053C4F2010315
:1030B0005B6B7B617B6903F04503002BF4D07B697C
:1030C00003F00403002B08D04FF00303FB744FF010
:1030D0000400FDF7E1F9FB7C47E07B6903F00103A5
:1030E000002B08D04FF00103FB744FF00100FDF7F7
:1030F000D3F9FB7C39E0FDF711F90346FA799A42DE
:1031000004D04FF01003FB74FB7C2EE040F2FF5024
:10311000FDF7C2F94FF00000FDF70CF9F860FB680D
:1031200003F46043002B07D1FB684FEA13439AB2C4
:103130003B681A80FB7C18E0FB6803F40053002B0B
:1031400002D04FF0130310E0FB6803F48043002B20
:1031500002D04FF0100308E0FB6803F40043002B9B
:1031600002D04FF00F0300E0FB7C184607F1180770
:10317000BD4680BD80B586B000AF0346FB714FF001
:103180000003FB754FF00003FB604FF000033B6151
:103190004FF00000FDF7CEF8034603F00073002B5C
:1031A00004D04FF00E03FB75FB7D06E140F24803AF
:1031B000C2F200031B689AB207F10C0310461946CD
:1031C00000F000F90346FB75FB7D002B01D0FB7D71
:1031D000F3E0FB79012B78D13B6903F48023002BCA
:1031E0006ED040F24803C2F200031B684FEA03426C
:1031F00040F29803C2F200031A6040F29803C2F250
:1032000000034FF037025A6040F29803C2F2000305
:103210004FF040029A6040F29803C2F200034FF070
:103220000002DA6040F29803C2F200034FF48062B9
:103230001A6140F29800C2F20000FDF73BF84FF02F
:103240003700FFF7C3FD0346FB75FB7D002B01D064
:10325000FB7DB2E040F29803C2F200034FF002029D
:103260001A6040F29803C2F200034FF006025A605F
:1032700040F29803C2F200034FF040029A6040F21D
:103280009803C2F200034FF00002DA6040F29803A4
:10329000C2F200034FF480621A6140F29800C2F259
:1032A0000000FDF707F84FF00600FFF78FFD03461B
:1032B000FB75FB7D002B01D0FB7D7EE0FB7D7CE080
:1032C0004FF02503FB75FB7D77E03B6903F480330A
:1032D000002B6ED040F24803C2F200031B684FEA95
:1032E000034240F29803C2F200031A6040F29803CE
:1032F000C2F200034FF037025A6040F29803C2F264
:1033000000034FF040029A6040F29803C2F20003BB
:103310004FF00002DA6040F29803C2F200034FF46B
:1033200080621A6140F29800C2F20000FCF7C2FF0E
:103330004FF03700FFF74AFD0346FB75FB7D002B7E
:1033400001D0FB7D39E040F29803C2F200034FF058
:1033500000021A6040F29803C2F200034FF0060226
:103360005A6040F29803C2F200034FF040029A60A4
:1033700040F29803C2F200034FF00002DA6040F21C
:103380009803C2F200034FF480621A6140F2980081
:10339000C2F20000FCF78EFF4FF00600FFF716FDAB
:1033A0000346FB75FB7D002B01D0FB7D05E0FB7D1B
:1033B00003E04FF02503FB75FB7D184607F1180766
:1033C000BD4680BD90B587B000AF03463960FB8035
:1033D0004FF000037B614FF00003FB744FF00003DC
:1033E000BB604FF00003FB6040F29803C2F20003A1
:1033F0004FF008021A6040F29803C2F200034FF047
:1034000010025A6040F29803C2F200034FF04002EB
:103410009A6040F29803C2F200034FF00002DA60B3
:1034200040F29803C2F200034FF480621A6140F246
:103430009800C2F20000FCF73DFF4FF01000FFF7CC
:10344000C5FC0346FB74FB7C002B01D0FB7C2EE10A
:1034500040F24803C2F200031B684FEA034240F205
:103460009803C2F200031A6040F29803C2F200030C
:103470004FF037025A6040F29803C2F200034FF057
:1034800040029A6040F29803C2F200034FF000023B
:10349000DA6040F29803C2F200034FF480621A61CE
:1034A00040F29800C2F20000FCF704FF4FF0370032
:1034B000FFF78CFC0346FB74FB7C002B01D0FB7CEC
:1034C000F5E040F22013C2F200034FF0FF321A6021
:1034D00040F22013C2F200034FF008025A6040F29B
:1034E0002013C2F200034FF030029A6040F2201322
:1034F000C2F200034FF00202DA6040F22013C2F27F
:1035000000034FF000021A6140F22013C2F20003E0
:103510004FF001025A6140F22010C2F20000FCF7A5
:103520001FFF40F29803C2F200034FF000021A603E
:1035300040F29803C2F200034FF033025A6040F2A7
:103540009803C2F200034FF040029A6040F29803E1
:10355000C2F200034FF00002DA6040F29803C2F2B8
:1035600000034FF480621A6140F29800C2F200003A
:10357000FCF7A0FE4FF03300FFF728FC0346FB7476
:10358000FB7C002B17D0FB7C91E04FF40010FCF784
:1035900065FF0346002B0FD07B694FEA830307F1D9
:1035A0000802D418FCF714FF034623607B6903F17B
:1035B00001037B6100E000BF4FF43053C4F201030C
:1035C0005A6B40F22A631340002BDED04FF0080004
:1035D000FCF744FF0346002B08D04FF00800FCF72F
:1035E0005BFF4FF00403FB74FB7C60E04FF00200D4
:1035F000FCF734FF0346002B08D04FF00200FCF725
:103600004BFF4FF00203FB74FB7C50E04FF02000B7
:10361000FCF724FF0346002B08D04FF02000FCF7F6
:103620003BFF4FF00603FB74FB7C40E04FF400705F
:10363000FCF714FF0346002B08D04FF40070FCF792
:103640002BFF4FF00703FB74FB7C30E040F2FF5090
:10365000FCF722FF3B6803F10403BA684FEA0261FA
:10366000BA6802F47F424FEA02221143BA6802F4B8
:103670007F024FEA12221143BA684FEA12620A43EC
:103680001A60FB684FEA0362FB6803F47F434FEA6A
:1036900003231A43FB6803F47F034FEA13231A43FF
:1036A000FB684FEA13631A433B681A60FB7C1846B9
:1036B00007F11C07BD4690BD80B584B000AF03463E
:1036C000FB71FB79002B02D04FF001030BE0FDF7FB
:1036D00019FF0346FB73FB7B002B02D04FF0010365
:1036E00001E04FF00003184607F11007BD4680BD0A
:1036F00080B483B000AF0346FB714FF0000318465F
:1037000007F10C07BD4680BC704700BF80B584B090
:1037100000AFB9607A600246FA73BB73BB7B012BC2
:103720000AD97B684FEA4322BB7BB86811464FF445
:103730000072FEF7C3FF08E07B684FEA4323B868D6
:1037400019464FF40072FEF7DBFE4FF000031846F7
:1037500007F11007BD4680BD80B584B000AFB960E9
:103760007A600246FA73BB73BB7B012B0AD97B6874
:103770004FEA4322BB7BB86811464FF40072FFF753
:1037800061F908E07B684FEA4323B86819464FF4B3
:103790000072FFF779F84FF00003184607F11007A1
:1037A000BD4680BD80B582B000AF48F62823C0F684
:1037B00000037B6040F20003C2F200033B600BE0B9
:1037C0007B681A683B681A603B6803F104033B603E
:1037D0007B6803F104037B603A6840F21803C2F28D
:1037E00000039A42ECD3094809494FF0000288428D
:1037F000B8BF40F8042BFFF6FAAF00F0D9FC00F098
:1038000083F907F10807BD4680BD000018000020BD
:10381000A803002080B400AFFEE700BF80B582B0EF
:1038200000AF4FF00C004FF0010100F0BDF94FF474
:103830000060C4F202004FF008014FF00C0200F0EB
:1038400063FC4FF40060C4F202004FF009014FF036
:103850000C0200F059FC4FF40060C4F202004FF07B
:103860000A014FF00C0200F04FFC4FF40060C4F26C
:1038700002004FF00B014FF00C0200F045FC4FF43A
:103880000060C4F202004FF00C014FF00C0200F097
:103890003BFC4FF44060C4F202004FF002014FF0D5
:1038A0000C0200F031FC4FF470633B604FF00103F9
:1038B0007B714FF002033B714FF00003BB714FF07F
:1038C0000103FB713B464FF40060C4F2020019464D
:1038D00000F078FB4FF004033B603B464FF4406040
:1038E000C4F20200194600F06DFB4FF480533B60B8
:1038F0004FF00003FB713B464FF40060C4F202003E
:10390000194600F05FFB4FF001033B604FF00003EE
:103910003B714FF00103FB713B464FF40060C4F272
:103920000200194600F04EFB4FF400604FF0010119
:1039300000F08EF94FF480004FF0010100F034F9EF
:1039400007F10807BD4680BD80B592B000AF786032
:10395000396046F25840C4F202004FF0FA5100F0CC
:10396000F3FE46F25840C4F202004FF0000100F0AE
:10397000B5FE46F25840C4F2020000F035FD4FF0AB
:103980000063FB604FF43253C4F201033B617B6878
:103990007B614FF04003BB614FF00003FB614FF0D0
:1039A00000033B624FF480637B624FF48053BB6241
:1039B0004FF48043FB624FF000033B634FF440330E
:1039C0007B634FF00403BB634FF00303FB634FF4CF
:1039D00000033B644FF400137B6407F10C0346F2D1
:1039E0005840C4F20200194600F020FE46F258404A
:1039F000C4F202004FF010014FF0010200F0D4FEBB
:103A000046F25840C4F202004FF0200100F082FE5E
:103A100046F25840C4F202004FF0010100F05EFE91
:103A200007F14807BD4680BD80B592B000AF786011
:103A3000396046F25840C4F202004FF0FA5100F0EB
:103A400083FE46F25840C4F202004FF0000100F03D
:103A500045FE46F25840C4F2020000F0C5FC4FF0AB
:103A60000063FB604FF43253C4F201033B617B6897
:103A70007B614FF00003BB614FF00003FB614FF02F
:103A800000033B624FF480637B624FF48053BB6260
:103A90004FF48043FB624FF000033B634FF440332D
:103AA0007B634FF00403BB634FF00303FB634FF4EE
:103AB00000033B644FF400137B6407F10C0346F2F0
:103AC0005840C4F20200194600F0B0FD46F25840DA
:103AD000C4F202004FF010014FF0010200F064FE4A
:103AE00046F25840C4F202004FF0200100F012FEEE
:103AF00046F25840C4F202004FF0010100F0EEFD22
:103B000007F14807BD4680BD80B500AFFCF7D4FC87
:103B10004FF6FF70FCF7ECFE4FF00000FCF7D6FE0E
:103B20004FF000004FF0000146F2C012C0F6000254
:103B3000FDF7E0F94FF00000FFF7BEFD4FF0000089
:103B400040F23C11C2F2000102F0FAF803461A46B4
:103B500040F2A033C2F200031A7040F23813C2F2EE
:103B600000031B6840F28430C2F20000194602F0E4
:103B700019F903461A4640F2A033C2F200031A7044
:103B800040F23813C2F200031B6840F28430C2F2E4
:103B90000000194602F006F903461A4640F2A03327
:103BA000C2F200031A70FEE780B483B000AF786001
:103BB0000B46FB70FB78002B0CD04FF46053C4F223
:103BC00002034FF46052C4F20202116B7A680A4396
:103BD0001A630DE04FF46053C4F202034FF46052D5
:103BE000C4F20202116B7A686FEA02020A401A6399
:103BF00007F10C07BD4680BC704700BF80B483B09E
:103C000000AF78600B46FB70FB78002B0CD04FF4B4
:103C10006053C4F202034FF46052C4F20202916B8B
:103C20007A680A439A630DE04FF46053C4F20203CA
:103C30004FF46052C4F20202916B7A686FEA02029A
:103C40000A409A6307F10C07BD4680BC704700BF6D
:103C500080B483B000AF78600B46FB70FB78002B1C
:103C60000CD04FF46053C4F202034FF46052C4F21C
:103C70000202516C7A680A435A640DE04FF46053B3
:103C8000C4F202034FF46052C4F20202516C7A682B
:103C90006FEA02020A405A6407F10C07BD4680BC75
:103CA000704700BF80B483B000AF78600B46FB70F4
:103CB000FB78002B0CD04FF46053C4F202034FF496
:103CC0006052C4F20202516A7A680A435A620DE0F5
:103CD0004FF46053C4F202034FF46052C4F2020284
:103CE000516A7A686FEA02020A405A6207F10C07C9
:103CF000BD4680BC704700BF80B483B000AF786021
:103D00000B46FB70FB78A3F120034FEAC30248F295
:103D10002073C0F60003D2187B68116852681960DE
:103D20005A6007F10C07BD4680BC704780B483B071
:103D300000AF78600B46FB70FB78A3F120021346BE
:103D40004FEA43039B184FEA830348F2AC22C0F6C4
:103D500000029A187B681068516892681860596070
:103D60009A6007F10C07BD4680BC704780B582B0F1
:103D700000AF78600B46FB70FB78A3F1200213467E
:103D80004FEA43039B184FEAC30347F6C412C0F639
:103D900000029B18786819464FF0180202F0C6F925
:103DA00007F10807BD4680BD90B482B000AF7860CF
:103DB0000B46FB70FB78A3F120034FEA031247F296
:103DC000D433C0F60003D2187B6814685068916839
:103DD000D2681C6058609960DA6007F10807BD4638
:103DE00090BC704780B582B000AF78600B46FB7026
:103DF000FB78A3F1200213464FEA43039B184FEAD6
:103E0000031346F20422C0F600029B187868194694
:103E10004FF0300202F08AF907F10807BD4680BD75
:103E200080B483B000AF78604FF020437A681268A6
:103E3000796848687968896808437968C968084377
:103E40007968096908437968496908437968896923
:103E500008437968C96908437968096A0843796839
:103E6000496A08437968896A08437968C96A0843D6
:103E70007968096B014343F822107B689B68082B23
:103E80000DD14FF020437A6812684FF020417868D6
:103E9000006851F8201041F0400143F822104FF023
:103EA00020437A68126802F101027968496B086858
:103EB0007968496B49684FEA011108437968496B91
:103EC00089684FEA012108437968496BC9684FEA5C
:103ED000014108437968496B09694FEA0151084378
:103EE0007968496B49694FEA016108437968496B10
:103EF0008969014343F822107B68DB6AB3F5804F80
:103F000027D14FF48273CAF200037A681268796885
:103F1000896B08687968896B49684FEA0111084321
:103F20007968896B89684FEA012108437968896B50
:103F300009694FEA015108437968896B49694FEA79
:103F4000016108437968896B8969014343F822104C
:103F500009E04FF48273CAF200037A6812686FF0C6
:103F6000704143F8221007F10C07BD4680BC704732
:103F700080B483B000AF78600B46FB70FB78002BF9
:103F80000CD04FF020434FF02042796852F82120A6
:103F900042F001017A6843F822100EE04FF020420F
:103FA0004FF02043796853F821104FF6FE73C0F2AA
:103FB0000F030B40796842F8213007F10C07BD462A
:103FC00080BC704780B487B000AF786039604FF034
:103FD00000037B614FF000033B614FF00003FB6087
:103FE0004FF000037B6186E07B694FF0010202FA2B
:103FF00003F33B613B681A683B691340FB60FA6856
:104000003B699A4273D17B681A687B694FEA430324
:104010004FF0030101FA03F36FEA03031A407B68D0
:104020001A607B681A683B681B7919467B694FEAFE
:10403000430301FA03F31A437B681A603B681B7958
:10404000012B03D03B681B79022B34D17B689A6823
:104050007B694FEA43034FF0030101FA03F36FEA70
:1040600003031A407B689A607B689A683B685B79B7
:1040700019467B694FEA430301FA03F31A437B684D
:104080009A607B685A687B699BB24FF0010101FA24
:1040900003F36FEA03031A407B685A607B685A682F
:1040A0003B689B7919467B699BB201FA03F39BB28B
:1040B0001A437B685A607B68DA687B699BB24FEA77
:1040C00043034FF0030101FA03F36FEA03031A40BD
:1040D0007B68DA607B68DA683B68DB7919467B6964
:1040E0004FEA430301FA03F31A437B68DA607B6902
:1040F00003F101037B617B690F2B7FF675AF07F13D
:104100001C07BD4680BC704780B485B000AF7860A6
:1041100013460A467A807B704FF00003FB604FF035
:104120000003BB607A787B8803F007034FEA8303C0
:1041300002FA03F3FB607B884FEAD3039BB21A4673
:104140007B884FEAD3039BB219467B6801F10801D3
:1041500053F821107B8803F007034FEA83034FF0E5
:104160000F0000FA03F36FEA030319407B6802F1C2
:10417000080243F822107B884FEAD3039BB21A4609
:104180007B6802F1080253F82220FB681343BB60EE
:104190007B884FEAD3039BB21A467B6802F1080280
:1041A000B96843F8221007F11407BD4680BC704778
:1041B00080B500AF4FF46D43CEF200034FF46D4273
:1041C000CEF20002D2F8882042F47002C3F88820B0
:1041D0004FF46053C4F202034FF46052C4F202027F
:1041E000126842F001021A604FF46053C4F20203F5
:1041F0004FF000029A604FF46053C4F202034FF490
:104200006052C4F20202126822F0847222F48032F8
:104210001A604FF46053C4F2020343F21002C2F278
:1042200000425A604FF46053C4F202034FF46052EC
:10423000C4F20202126822F480221A604FF4605322
:10424000C4F202034FF00002DA6000F009F84FF404
:104250006D43CEF200034FF000629A6080BD00BF54
:1042600080B483B000AF4FF000037B604FF00003D9
:104270003B604FF46053C4F202034FF46052C4F247
:104280000202126842F480321A604FF46053C4F2A2
:1042900002031B6803F400333B607B6803F10103F6
:1042A0007B603B68002B03D17B68B3F5A06FECD13A
:1042B0004FF46053C4F202031B6803F40033002B75
:1042C00003D04FF001033B6002E04FF000033B607E
:1042D0003B68012B40F082804FF46053C4F202032C
:1042E0004FF46052C4F20202126C42F080521A641F
:1042F0004FF4E043C4F200034FF4E042C4F2000282
:10430000126842F480421A604FF46053C4F2020310
:104310004FF46052C4F2020292689A604FF4605304
:10432000C4F202034FF46052C4F20202926842F4F3
:1043300000429A604FF46053C4F202034FF460529B
:10434000C4F20202926842F4A0529A604FF46053A1
:10435000C4F2020345F21942C0F240725A604FF4AF
:104360006053C4F202034FF46052C4F202021268B6
:1043700042F080721A6000BF4FF46053C4F202032F
:104380001B6803F00073002BF6D04FF47053C4F297
:10439000020340F205621A604FF46053C4F2020354
:1043A0004FF46052C4F20202926822F003029A6053
:1043B0004FF46053C4F202034FF46052C4F202029D
:1043C000926842F002029A6000BF4FF46053C4F258
:1043D00002039B6803F00C03082BF6D107F10C07CE
:1043E000BD4680BC704700BF80B483B000AF78602A
:1043F0007B681B6823F001027B681A607B684FF0C2
:1044000000021A607B684FF000025A607B684FF030
:1044100000029A607B684FF00002DA607B684FF020
:1044200000021A617B684FF021025A617A6846F2F5
:104430001003C4F202039A4207D14FF4C043C4F2FE
:1044400002034FF03D029A60EBE07A6846F22803DF
:10445000C4F202039A4207D14FF4C043C4F20203EC
:104460004FF474629A60DCE07A6846F24003C4F26A
:1044700002039A4207D14FF4C043C4F202034FF43F
:1044800074129A60CDE07A6846F25803C4F20203CF
:104490009A4207D14FF4C043C4F202034FF0746252
:1044A0009A60BEE07A6846F27003C4F202039A4250
:1044B00009D14FF4C043C4F202034FF03D02C2F2EF
:1044C0000002DA60ADE07A6846F28803C4F20203C3
:1044D0009A4209D14FF4C043C4F202034FF474620C
:1044E000C2F20002DA609CE07A6846F2A003C4F2ED
:1044F00002039A4209D14FF4C043C4F202034FF0C1
:104500000002C2F23D02DA608BE07A6846F2B8033C
:10451000C4F202039A4207D14FF4C043C4F202032B
:104520004FF03D52DA607CE07A6846F21043C4F204
:1045300002039A4207D14FF4C843C4F202034FF07A
:104540003D029A606DE07A6846F22843C4F20203A5
:104550009A4207D14FF4C843C4F202034FF4746285
:104560009A605EE07A6846F24043C4F202039A42DF
:1045700007D14FF4C843C4F202034FF474129A6097
:104580004FE07A6846F25843C4F202039A4207D1D8
:104590004FF4C843C4F202034FF074629A6040E0E3
:1045A0007A6846F27043C4F202039A4209D14FF48A
:1045B000C843C4F202034FF03D02C2F20002DA60C7
:1045C0002FE07A6846F28843C4F202039A4209D186
:1045D0004FF4C843C4F202034FF47462C2F2000203
:1045E000DA601EE07A6846F2A043C4F202039A42FF
:1045F00009D14FF4C843C4F202034FF00002C2F2E3
:104600003D02DA600DE07A6846F2B843C4F2020374
:104610009A4206D14FF4C843C4F202034FF03D5210
:10462000DA6007F10C07BD4680BC704780B485B0E6
:1046300000AF786039604FF00003FB607B681B6857
:10464000FB60FA6848F23F03CFF21C031340FB60A3
:104650003B681A683B68DB681A433B685B691A432E
:104660003B689B691A433B68DB691A433B681B6ADA
:104670001A433B685B6A1A433B689B6A1A433B6870
:104680005B6B1A433B689B6B1343FA681343FB60F5
:104690007B68FA681A607B685B69FB60FB6823F0E3
:1046A0000703FB603B68DA6A3B681B6B1343FA68DD
:1046B0001343FB607B68FA685A613B681A697B6840
:1046C0005A603B685A687B689A603B689A687B6866
:1046D000DA6007F11407BD4680BC704780B483B030
:1046E00000AF78600B46FB70FB78002B06D07B6830
:1046F0001B6843F001027B681A6005E07B681B6859
:1047000023F001027B681A6007F10C07BD4680BCEC
:10471000704700BF80B483B000AF786039603B68F9
:10472000002B06D07B681B6843F020027B681A6070
:1047300005E07B681B6823F020027B681A6007F1A4
:104740000C07BD4680BC704780B485B000AF786070
:1047500039607A6846F20F43C4F202039A4205D8E0
:104760004FF4C043C4F20203FB6004E04FF4C843BB
:10477000C4F20203FB603B6803F00053002B07D038
:104780003B6823F0F02323F08213FA68D36006E03D
:104790003B6823F0F02323F08213FA68936007F15B
:1047A0001407BD4680BC704780B485B000AFF86088
:1047B000B9601346FB71BB6803F08003002B0FD078
:1047C000FB79002B06D0FB685B6943F08002FB6835
:1047D0005A6105E0FB685B6923F08002FB685A615F
:1047E000BB68802B15D0FB79002B08D0FB681A68BA
:1047F000BB6803F01E031A43FB681A6009E0FB68FC
:104800001A68BB6803F01E036FEA03031A40FB68D3
:104810001A6007F11407BD4680BC704780B487B0AA
:1048200000AFF860B9607A60FB687B6107E0BB6845
:10483000DAB27B691A707B6903F101037B617B68E3
:10484000002B0CBF00230123DBB27A6802F1FF3298
:104850007A60002BEBD107F11C07BD4680BC704786
:1048600080B489B000AFF860B9607A60FB68FB6122
:10487000BB68BB614FF000037B6100BF7B68002B0E
:104880000CBF00230123DBB27A6802F1FF327A60A9
:10489000002B16D0FB691B781A46BB691B78D31A0C
:1048A0007B617B69002B14BF00230123DBB2FA6913
:1048B00002F10102FA61BA6902F10102BA61002B48
:1048C000DCD17B69184607F12407BD4680BC7047E0
:1048D00080B483B000AF7860396003E07B6803F197
:1048E00001037B607B681B78002B05D07B681B78FD
:1048F0001A463B689A42F1D17B681B78184607F14B
:104900000C07BD4680BC704780B584B000AF7860AE
:1049100039607B68DB6AFB60FA683B689A4255D075
:104920007B681B79002B39D07B685A787B6803F150
:10493000300310461946FA684FF00103FEF70CFFEA
:104940000346002B02D04FF0010341E07B684FF09B
:1049500000021A717B681A6A7B68DB69D218FB68EF
:104960009A421BD97B68DB78FB7214E07B68DB69B9
:10497000FA68D318FB607B685A787B6803F13003D0
:1049800010461946FA684FF00103FEF7E5FEFB7A80
:1049900003F1FF33FB72FB7A012BE7D83B68002B56
:1049A00014D07B685A787B6803F1300310461946AF
:1049B0003A684FF00103FEF7A9FE0346002B02D030
:1049C0004FF0010304E07B683A68DA624FF00003BD
:1049D000184607F11007BD4680BD00BF80B483B004
:1049E00000AF786039603B68A3F102033B607B68ED
:1049F0009B69A3F102023B689A4202D84FF0000380
:104A000007E07B689B783A6802FB03F27B689B6A4D
:104A1000D318184607F10C07BD4680BC704700BF8D
:104A200080B586B000AF786039603B68012B04D94F
:104A30007B689A693B689A4202D84FF00103B8E05C
:104A40007B681B78022B52D0032B76D0012B40F0D1
:104A5000AE803B687B617B694FEA53037A69D31868
:104A60007B617B681A6A7B694FEA5323D3187868A5
:104A70001946FFF749FF0346002B40F091807B6900
:104A80004FEAC3534FEAD3537A68D31893F83030C0
:104A90003B617B6903F101037B617B681A6A7B6977
:104AA0004FEA5323D31878681946FFF72DFF0346C2
:104AB000002B77D17B694FEAC3534FEAD3537A680F
:104AC000D31893F830304FEA03233A6913433B611C
:104AD0003B6803F00103002B03D03B694FEA13133B
:104AE00004E03B694FEA03534FEA135361E07B68EC
:104AF0001A6A3B684FEA1323D31878681946FFF700
:104B000003FF0346002B4FD13B684FEA43034FEAB4
:104B1000C3534FEAD35303F130037A68D318FB60D1
:104B2000FB6803F101031B784FEA03239AB2FB6889
:104B30001B7813439BB29BB23BE07B681A6A3B68CD
:104B40004FEAD313D31878681946FFF7DDFE034602
:104B5000002B2BD13B684FEA83034FEAC3534FEA44
:104B6000D35303F130037A68D318FB60FB6803F179
:104B700003031B784FEA0362FB6803F102031B780F
:104B80004FEA03431A43FB6803F101031B784FEA22
:104B900003231A43FB681B78134323F0704308E098
:104BA00000BF04E000BF02E000BF00E000BF4FF024
:104BB000FF33184607F11807BD4680BD80B588B0A1
:104BC00000AFF860B9607A60BB68012B04D9FB685C
:104BD0009A69BB689A4203D84FF00203FB7711E150
:104BE000FB681B78022B7ED0032B00F0A680012BE4
:104BF00040F0F980BB68BB61BB694FEA5303BA69F7
:104C0000D318BB61FB681A6ABB694FEA5323D318F8
:104C1000F8681946FFF778FE0346FB77FB7F002B09
:104C200040F0E580BB694FEAC3534FEAD35303F129
:104C30003003FA68D3187B61BB6803F00103002BD3
:104C40000ED07B691B78DBB203F00F03DAB27B680E
:104C5000DBB24FEA0313DBB21343DBB2DBB201E09A
:104C60007B68DBB27A691370BB6903F10103BB6136
:104C7000FB684FF001021A71FB681A6ABB694FEAC0
:104C80005323D318F8681946FFF73EFE0346FB7717
:104C9000FB7F002B40F0AD80BB694FEAC3534FEA66
:104CA000D35303F13003FA68D3187B61BB6803F078
:104CB0000103002B04D07B684FEA1313DBB20FE033
:104CC0007B691B78DBB223F00F03DAB27B684FEA13
:104CD0001323DBB203F00F03DBB21343DBB2DBB20F
:104CE0007A6913708AE0FB681A6ABB684FEA13237B
:104CF000D318F8681946FFF707FE0346FB77FB7FDA
:104D0000002B78D1BB684FEA43034FEAC3534FEA05
:104D1000D35303F13003FA68D3187B617B68DAB2AE
:104D20007B691A707B6903F101037A6892B24FEADA
:104D3000122292B2D2B21A7060E0FB681A6ABB68A3
:104D40004FEAD313D318F8681946FFF7DDFD034681
:104D5000FB77FB7F002B50D1BB684FEA83034FEA00
:104D6000C3534FEAD35303F13003FA68D3187B617E
:104D70007B6903F103031B784FEA03627B6903F14C
:104D800002031B784FEA03431A437B6903F10103D3
:104D90001B784FEA03231A437B691B78134303F004
:104DA00070437A6813437B607B68DAB27B691A7060
:104DB0007B6903F101037A6892B24FEA122292B240
:104DC000D2B21A707B6903F102037A684FEA124289
:104DD000D2B21A707B6903F103037A684FEA126258
:104DE000D2B21A700AE04FF00203FB7706E000BF70
:104DF00004E000BF02E000BF00E000BFFB684FF02E
:104E000001021A71FB7F184607F12007BD4680BDDD
:104E100080B586B000AF786039603B68002B0ED15A
:104E20007B68DB683B613B69002B04D07B689A6937
:104E30003B699A4217D84FF001033B6113E0786851
:104E40003968FFF7EDFDB860BB68012B02D84FF061
:104E500001036DE07B689A69BB689A4201D9BB681F
:104E600066E03B683B613B697B6100E000BF7B69BA
:104E700003F101037B617B689A697B699A4209D8D7
:104E80004FF002037B617A693B699A4202D94FF085
:104E900000034DE078687969FFF7C2FDB860BB6830
:104EA000002B0FD0BB68B3F1FF3F02D0BB68012BD2
:104EB00001D1BB683CE07A693B699A42D6D14FF098
:104EC000000335E000BF786879696FF07042FFF742
:104ED00075FE0346FB73FB7B002B09D13B68002B5F
:104EE00006D0786839687A69FFF768FE0346FB7375
:104EF000FB7B002B12D17B687A69DA607B681B69C7
:104F0000B3F1FF3F13D07B681B6903F1FF327B686D
:104F10001A617B684FF001025A7108E0FB7B012B9C
:104F200002D14FF0FF3301E04FF001037B617B6959
:104F3000184607F11807BD4680BD00BF80B584B094
:104F400000AF78600B467B807B687A88DA807B686C
:104F50009B68FB60FB68012B05D07B681B689A6926
:104F6000FB689A4202D84FF002036DE0FB68002B09
:104F700008D17B681B681B78032B03D17B681B68F7
:104F80005B6AFB60FB68002B16D17B68FA68DA600D
:104F90007B681B681B897A889A4202D34FF0020310
:104FA00052E07B681B685A6A7B884FEA13139BB2F6
:104FB000D2187B681A6139E07B681B689B784FEADE
:104FC00003137B811DE07B681B681846F968FFF7B7
:104FD00027FDF860FB68B3F1FF3F02D14FF00103FA
:104FE00032E0FB68012B05D97B681B689A69FB6876
:104FF0009A4202D84FF0020326E07A887B89D31ABE
:105000007B807A887B899A42DDD27B68FA68DA6095
:105010007B681B681846F968FFF7E0FC02467B884E
:105020004FEA13139BB2D2187B681A617B681A6827
:105030007B8803F00F034FEA431303F13003D218C8
:105040007B685A614FF00003184607F11007BD4610
:1050500080BD00BF90B585B000AF786039607B68D7
:10506000DB8803F101033B813B89002B03D07B6884
:105070001B69002B02D14FF00403D3E03B8903F0FE
:105080000F039BB2002B40F0BC807B681B6903F1CF
:1050900001027B681A617B68DB68002B09D17B68A1
:1050A0001B681B893A899A42C0F0AB804FF0040319
:1050B000B8E03B894FEA13139BB21A467B681B6822
:1050C0009B7803F1FF331340002B40F09A807B68FC
:1050D0001A687B68DB6810461946FFF7A1FCF86088
:1050E000FB68012B02D84FF002039BE0FB68B3F191
:1050F000FF3F02D14FF0010394E07B681B689A697F
:10510000FB689A4271D83B68002B02D14FF0040330
:1051100088E07B681A687B68DB6810461946FFF7F1
:1051200077FEF860FB68002B02D14FF0070379E0AF
:10513000FB68012B02D14FF0020373E0FB68B3F16F
:10514000FF3F02D14FF001036CE07B681B681846FB
:105150004FF00001FFF7D8FB0346002B02D04FF0C1
:1051600001035FE07B681B6803F1300318464FF0D2
:1051700000014FF40072FFF751FB7B681C687B68ED
:105180001B681846F968FFF729FC0346E3624FF0F5
:105190000003FB721BE07B681B684FF001021A7171
:1051A0007B681B6818464FF00001FFF7ADFB034614
:1051B000002B02D04FF0010334E07B681B68DA6AF1
:1051C00002F10102DA62FB7A03F10103FB727B68F0
:1051D0001B689B78FA7A9A42DDD37B681B687A68F1
:1051E0001268D16AFA7A8A1ADA627B68FA68DA6037
:1051F0007B681B681846F968FFF7F0FB02467B687E
:105200001A617B683A89DA807B681A683B8903F007
:105210000F034FEA431303F13003D2187B685A613E
:105220004FF00003184607F11407BD4690BD00BFBC
:1052300080B586B000AF786078684FF00001FFF766
:105240007DFE0346FB75FB7D002B01D0FB7D3BE023
:105250007B681A687B681B6910461946FFF754FB88
:105260000346FB75FB7D002B2AD17B685B693B61A4
:105270003B691B78FB73FB7B002B03D14FF00403CE
:10528000FB7520E03B6903F10B031B7803F0080377
:10529000002B0AD17B689B69386919464FF00B02D5
:1052A000FFF7DEFA0346002B0CD078684FF00001C0
:1052B000FFF7D0FE0346FB75FB7D002BC8D002E054
:1052C00000BF00E000BFFB7D184607F11807BD4690
:1052D00080BD00BF80B58AB000AF786039603B68A0
:1052E0001B687B6103E07B6903F101037B617B69E0
:1052F0001B782F2BF7D07B691B785C2BF3D07B6856
:105300009B693B6138694FF020014FF00B02FFF7BA
:1053100085FA4FF0000387F827304FF00003BB6198
:10532000BB69FB614FF008033B627A69FB69D318E4
:105330001B7887F82630FB6903F10103FB6197F8BE
:105340002630202B40F2B58097F826302F2B00F026
:10535000B08097F826305C2B00F0AB8097F82630B1
:105360002E2B03D0BA693B6A9A4216D33B6A082BAC
:1053700003D197F826302E2B02D04FF00603DFE042
:105380004FF00803BB614FF00B033B6297F82730E7
:105390004FEA830387F827308AE097F826305BB21C
:1053A000002B05DA97F8273043F0030387F82730FE
:1053B00097F82630802B03D997F826309F2B07D9F2
:1053C00097F82630DF2B36D997F82630FC2B32D8C9
:1053D0007A69FB69D3181B78FB73FB6903F101033E
:1053E000FB61FB7B3F2B02D9FB7B7E2B06D9FB7B32
:1053F0005BB2002B08DAFB7BFC2B05D83B6A03F180
:10540000FF32BB699A4202D84FF0060398E03A692E
:10541000BB69D31897F826201A70BB6903F1010302
:10542000BB613A69BB69D318FA7B1A70BB6903F197
:105430000103BB613CE097F8263048F61820C0F61F
:1054400000001946FFF744FA0346002B02D04FF044
:10545000060375E097F82630402B0AD997F82630D6
:105460005A2B06D897F8273043F0020387F82730E5
:1054700013E097F82630602B0FD997F826307A2B57
:105480000BD897F8273043F0010387F8273097F8B7
:105490002630A3F1200387F826303A69BB69D31878
:1054A00097F826201A70BB6903F10103BB613CE742
:1054B0003BE77A69FB69D2183B681A6097F8263097
:1054C000202B02D84FF0040301E04FF0000387F8CF
:1054D0002630BB69002B02D14FF0060330E03B6958
:1054E0001B78E52B03D13B694FF005021A703B6A2C
:1054F000082B05D197F827304FEA830387F8273028
:1055000097F8273003F00303012B05D197F82630D5
:1055100043F0100387F8263097F8273003F00C0388
:10552000042B05D197F8263043F0080387F826307E
:105530003B6903F10B0397F826201A704FF0000324
:10554000184607F12807BD4680BD00BF80B584B06E
:1055500000AF786039603B681B782F2B03D03B6825
:105560001B785C2B03D13B6803F101033B607B6834
:105570004FF000029A603B681B781F2B0BD87868AD
:105580004FF00001FFF7DAFC0346FB737B684FF036
:1055900000025A615EE03B4678681946FFF79AFEC2
:1055A0000346FB73FB7B002B4DD17868FFF740FE71
:1055B0000346FB737B689B69DB7ABB73FB7B002B29
:1055C0000BD0FB7B042B40D1BB7B03F00403002BEF
:1055D0003DD14FF00503FB7339E0BB7B03F00403BF
:1055E000002B36D17B685B69BB60BB6803F10B03A2
:1055F0001B7803F01003002B03D14FF00503FB735E
:1056000028E0BB6803F115031B784FEA03239AB225
:10561000BB6803F114031B7813439BB29BB24FEAA0
:105620000342BB6803F11B031B784FEA032399B2C3
:10563000BB6803F11A031B780B439BB29BB21A435E
:105640007B689A60A7E700BF04E000BF02E000BFEC
:1056500000E000BFFB7B184607F11007BD4680BD88
:1056600080B582B000AF786039607B685A787B681B
:1056700003F13003104619463A684FF00103FEF774
:1056800045F80346002B02D04FF0030356E07B6839
:1056900093F82F324FEA03239AB27B6893F82E32A5
:1056A00013439BB21AB24AF65523CFF6FF739A42C0
:1056B00002D04FF0020341E07B6893F869304FEA73
:1056C00003627B6893F868304FEA03431A437B68B0
:1056D00093F867304FEA03231A437B6893F86630E8
:1056E000134323F07F4244F24613C0F254039A421C
:1056F00002D14FF0000321E07B6893F885304FEA38
:1057000003627B6893F884304FEA03431A437B6853
:1057100093F883304FEA03231A437B6893F882306F
:10572000134323F07F4244F24613C0F254039A42DB
:1057300002D14FF0000301E04FF00103184607F1DA
:105740000807BD4680BD00BF80B592B000AFF860CD
:10575000B9601346FB71FB681B68FB62FB6A1B7830
:10576000A3F130033B643B6C092B0DD8FB6A03F1BA
:1057700001031B783A2B07D1FB6A03F10203FB629A
:10578000FB68FA6A1A6002E04FF000033B643B6C6E
:10579000002B02D04FF00B03CDE240F26C03C2F2BB
:1057A00000033A6C53F82230BB62BB68BA6A1A60D5
:1057B000BB6A002B02D14FF00C03BCE2BB6A1B7822
:1057C000002B1CD0BB6A5B781846FDF791FF03469F
:1057D00087F8273097F8273003F00103002B0ED10C
:1057E000FB79002B08D097F8273003F00403002B37
:1057F00002D04FF00A039EE24FF000039BE2BB6A27
:105800004FF000021A703B6CDAB2BB6A5A70BB6A86
:105810005B781846FDF750FF034687F8273097F866
:10582000273003F00103002B02D04FF0030382E284
:10583000FB79002B08D097F8273003F00403002BE6
:1058400002D04FF00A0376E24FF00003FB63B86A20
:10585000F96BFFF705FF034687F8473097F84730A5
:10586000012B3FD14FF0000387F8463097F84630C0
:10587000002B05D097F8463003F1FF3387F8463008
:1058800097F846304FEA031303F5DF7303F1300353
:10589000BA6AD3183B623B6A03F104031B78002BFE
:1058A00020D03B6A03F10B031B784FEA03623B6A8B
:1058B00003F10A031B784FEA03431A433B6A03F1DF
:1058C00009031B784FEA03231A433B6A03F10803D9
:1058D0001B781343FB63B86AF96BFFF7C1FE0346FD
:1058E00087F8473097F84730032B02D14FF0010378
:1058F00021E297F84730002B02D04FF00D031AE257
:10590000BB6A93F83C304FEA03239AB2BB6A93F820
:105910003B3013439BB21BB2B3F5007F02D04FF074
:105920000D0308E2BB6A93F847304FEA03239AB2AB
:10593000BB6A93F8463013439BB29BB2BB63BB6B0D
:10594000002B15D1BB6A93F857304FEA0362BB6A4C
:1059500093F856304FEA03431A43BB6A93F8553025
:105960004FEA03231A43BB6A93F854301343BB63D3
:10597000BB6ABA6BDA61BB6A93F84030FB77BB6AEB
:10598000FA7FDA70FB7F012B05D0FB7F022B02D060
:105990004FF00D03CFE1FA7FBB6B02FB03F3BB6358
:1059A000BB6A93F83D30FB77BB6AFA7F9A70FB7F46
:1059B000002B06D0FA7FFB7F03F1FF331340002B4F
:1059C00002D04FF00D03B6E1BB6A93F842304FEAC4
:1059D00003239AB2BB6A93F8413013439BB29AB245
:1059E000BB6A1A81BB6A1B8903F00F039BB2002BB1
:1059F00002D04FF00D039EE1BB6A93F844304FEAAA
:105A000003239AB2BB6A93F8433013439BB29BB211
:105A10007B637B6B002B15D1BB6A93F853304FEA45
:105A20000362BB6A93F852304FEA03431A43BB6ADE
:105A300093F851304FEA03231A43BB6A93F850306E
:105A400013437B63BB6A93F83F304FEA03239AB258
:105A5000BB6A93F83E3013439BB2BB83BB8B002BD6
:105A600002D14FF00D0366E1BA8BBB6BD218BB6A53
:105A70001B894FEA13139BB2D318BB617A6BBB69C6
:105A80009A4202D24FF00D0355E17A6BBB69D21AEC
:105A9000BB6A9B78B2FBF3F37B617B69002B02D17D
:105AA0004FF00D0347E14FF0010387F847307A6963
:105AB00040F6F5739A4203D94FF0020387F8473056
:105AC0007A694FF6F5739A4203D94FF0030387F8CA
:105AD00047307B6903F10202BB6A9A61FA6BBB69CA
:105AE000D218BB6A9A62BA8BFB6BD218BB6A1A6275
:105AF00097F84730032B23D1BB6A1B89002B02D0B8
:105B00004FF00D0317E1BB6A93F85F304FEA036271
:105B1000BB6A93F85E304FEA03431A43BB6A93F8BB
:105B20005D304FEA03231A43BB6A93F85C301A4393
:105B3000BB6A5A62BB6A9B694FEA83033B6323E0FB
:105B4000BB6A1B89002B02D14FF00D03F3E0BB6A47
:105B50001A6ABB6BD218BB6A5A6297F84730022B9D
:105B600004D1BB6A9B694FEA43030CE0BB6A9A69A4
:105B700013464FEA43039B184FEA5302BB6A9B69E3
:105B800003F00103D3183B63BB6ADA693B6B03F292
:105B9000FF134FEA53239A4202D24FF00D03CAE09B
:105BA000BB6A4FF0FF321A61BB6A4FF00002DA6045
:105BB00097F84730032B40F09C80BB6A4FF00002FF
:105BC0005A71BB6A93F861304FEA03239AB2BB6AF9
:105BD00093F8603013439BB29BB21A46FB6BD2180A
:105BE000BB6A5A61BB6A5978BB6A03F13002BB6A6F
:105BF0005B69084611461A464FF00103FDF786FD22
:105C00000346002B75D1BB6A93F82F324FEA03236A
:105C10009AB2BB6A93F82E3213439BB21AB24AF679
:105C20005523CFF6FF739A4263D1BB6A93F83330A2
:105C30004FEA0362BB6A93F832304FEA03431A43D8
:105C4000BB6A93F831304FEA03231A43BB6A93F8D7
:105C500030301A4345F25223C4F261139A4248D1BC
:105C6000BB6A93F817324FEA0362BB6A93F81632A5
:105C70004FEA03431A43BB6A93F815324FEA0323F2
:105C80001A43BB6A93F814321A4347F27223C6F2DE
:105C900041139A422DD1BB6A93F81F324FEA036237
:105CA000BB6A93F81E324FEA03431A43BB6A93F868
:105CB0001D324FEA03231A43BB6A93F81C321A437E
:105CC000BB6ADA60BB6A93F81B324FEA0362BB6AB5
:105CD00093F81A324FEA03431A43BB6A93F8193216
:105CE0004FEA03231A43BB6A93F818321A43BB6A7C
:105CF0001A61BB6A97F847201A7040F27003C2F22B
:105D000000031B8803F101039AB240F27003C2F250
:105D100000031A8040F27003C2F200031A88BB6AC3
:105D2000DA80BB6A4FF00002DA62BB6A4FF0000211
:105D30001A714FF00003184607F14807BD4680BDB1
:105D400080B485B000AF03463960FB71FB79002B4E
:105D500002D04FF00B031FE0FA7940F26C03C2F25D
:105D6000000353F82230FB60FB68002B03D0FB6874
:105D70004FF000021A703B68002B03D03B684FF0D5
:105D800000021A70FA7940F26C03C2F2000339681B
:105D900043F822104FF00003184607F11407BD46E0
:105DA00080BC704780B586B000AF786039607B6892
:105DB0003A46104619464FF00002FFF7C5FC03466D
:105DC000FB75FB7D002B58D17B6807F108029A61B7
:105DD0003B6878681946FFF7B9FB0346FB75FB7D06
:105DE000002B44D17B685B69002B31D07B685B69F9
:105DF00003F10B031B7803F01003002B25D07B6805
:105E00005B6903F115031B784FEA03239AB27B68A1
:105E10005B6903F114031B7813439BB29BB24FEAF7
:105E200003427B685B6903F11B031B784FEA032382
:105E300099B27B685B6903F11A031B780B439BB231
:105E40009BB21A437B689A6002E04FF00503FB7532
:105E5000FB7D002B0BD17B681B68DA887B689A80FE
:105E600078684FF00001FFF769F80346FB75FB7D8A
:105E7000042B02D14FF00503FB75FB7D184607F19B
:105E80001807BD4680BD00BF80B485B000AF786004
:105E900039604FF00003FB817B681B88FB817A68C7
:105EA0004FF00003C4F201039A421FD07A684FF406
:105EB0008063C4F201039A4218D07B68B3F1804F2B
:105EC00014D07A684FF48063C4F200039A420DD074
:105ED0007A684FF40063C4F200039A4206D07A68ED
:105EE0004FF44063C4F200039A4208D1FB8923F0C7
:105EF0007003FB813B685A88FB891343FB817A68F6
:105F00004FF48053C4F200039A420FD07A684FF4E2
:105F1000A053C4F200039A4208D0FB8923F44073D3
:105F2000FB813B681A89FB891343FB817B68FA89F3
:105F30001A803B685A687B68DA623B681A887B681B
:105F40001A857A684FF00003C4F201039A4206D022
:105F50007A684FF48063C4F201039A4204D13B682B
:105F60009B7A1A467B681A867B684FF001029A82F8
:105F700007F11407BD4680BC704700BF80B483B0F2
:105F800000AF78600B46FB70FB78002B08D07B6875
:105F90001B889BB243F001039AB27B681A8007E02A
:105FA0007B681B889BB223F001039AB27B681A803E
:105FB00007F10C07BD4680BC704700BF80B485B0B8
:105FC00000AF786039604FF000037B814FF0000331
:105FD000FB814FF00003BB817B681B8C9BB223F4D9
:105FE00080739AB27B681A847B681B8CFB817B6808
:105FF0009B88BB817B689B8B7B817B8923F07003B3
:106000007B817B8923F003037B813B681A887B8932
:1060100013437B81FB8923F40073FB813B689B89DD
:106020004FEA03239AB2FB891343FB813B685B88E9
:106030004FEA03239AB2FB891343FB817A684FF03E
:106040000003C4F201039A4206D07A684FF48063D9
:10605000C4F201039A422FD1FB8923F40063FB8130
:106060003B68DB894FEA03239AB2FB891343FB8128
:10607000FB8923F48063FB813B689B884FEA032301
:106080009AB2FB891343FB81BB8923F48053BB8104
:10609000BB8923F40053BB813B681B8A4FEA03137F
:1060A0009AB2BB891343BB813B685B8A4FEA0313F7
:1060B0009AB2BB891343BB817B68BA899A807B689B
:1060C0007A899A833B689A687B68DA637B68FA8985
:1060D0001A8407F11407BD4680BC704780B483B0B2
:1060E00000AF78600B46FB70FB78002B0CD07B6810
:1060F000B3F844309BB26FEA43436FEA53439AB21A
:106100007B68A3F844200BE07B68B3F844309BB273
:106110004FEA43434FEA53439AB27B68A3F84420C3
:1061200007F10C07BD4680BC704700BF0F2AF0B4D2
:1061300040D941EA00039B073ED10C460346154671
:106140002668103D1E6066685E60A6689E60E66810
:106150001034DE6010330F2DF2D8A2F1100502F0DA
:106160000F0425F00F051035032C00EB050329441F
:1061700024D9A4F1040C1D460C464FEA9C0C01EBFB
:106180008C07043754F8046BBC4245F8046BF9D112
:106190000CF1010402F00302A40009191B193AB121
:1061A00001399A1811F8014F03F8014B9342F9D1C4
:1061B000F0BC70470346F2E70346F1E72246EEE7FC
:1061C000474C4344204C6962726172792076312ECB
:1061D000302072756E6E696E672C20636F6D70690A
:1061E0006C6564207769746820436F494445206674
:1061F000726F6D2077772E434F4F434F582E6F723B
:106200006700000000000000000000000000000027
:10621000000000000000000000000000000000007E
:10622000000000000000000000000000000000006E
:1062300000000000000080018001800180018001D9
:106240008001800180018001800180018001800146
:10625000000000008001800100000000000000003C
:106260000000000000000000CC00CC00CC00CC00FE
:10627000CC00CC0000000000000000000000000086
:10628000000000000000000000000000000000000E
:1062900000000000000000000000000000000000FE
:1062A000600C600C600C30063006FE1FFE1F3006CE
:1062B00038071803FE1FFE1F180318038C018C01FA
:1062C0008C01000000008000E003F80F9C0E8C1C85
:1062D0008C188C009800F801E007800E801C8C1848
:1062E0008C189C18B80CF00FE003800080000000B0
:1062F000000000000000000000000E181B0C110C34
:1063000011061106110311039B018E01C038C06CE8
:1063100060446044304430441844186C0C38000029
:10632000000000000000E001F0033807180618061E
:106330003003F001F000F8009C310E33061E061CFD
:10634000061C063FFC73F021000000000000000066
:1063500000000000000000000C000C000C000C000D
:106360000C000C0000000000000000000000000015
:10637000000000000000000000000000000000001D
:10638000000000000000000200038001C000C00007
:10639000600060003000300030003000300030001D
:1063A0003000300060006000C000C00080010003C9
:1063B00000020000000020006000C0008001800199
:1063C00000030003000600060006000600060006A3
:1063D000000600060003000380018001C000600089
:1063E000200000000000000000000000000000008D
:1063F000C000C000D806F807E001300338070000ED
:10640000000000000000000000000000000000008C
:10641000000000000000000000000000000000007C
:1064200080018001800180018001FC3FFC3F8001F0
:106430008001800180018001000000000000000058
:10644000000000000000000000000000000000004C
:10645000000000000000000000000000000000003C
:1064600000000000000080018001000100018000A8
:10647000000000000000000000000000000000001C
:10648000000000000000000000000000E007E0073E
:1064900000000000000000000000000000000000FC
:1064A00000000000000000000000000000000000EC
:1064B00000000000000000000000000000000000DC
:1064C000000000000000C000C0000000000000004C
:1064D000000000000000000C000C00060006000692
:1064E0000003000300038003800180018001C000DD
:1064F000C000C0006000600000000000000000005C
:10650000000000000000E003F007380E180C0C1823
:106510000C180C180C180C180C180C180C180C185B
:10652000180C380EF007E003000000000000000027
:1065300000000000000000018001C001F00198018E
:10654000880180018001800180018001800180013B
:106550008001800180018001000000000000000037
:10656000000000000000E003F80F180C0C180C18D5
:1065700000180018000C000600038001C000600035
:1065800030001800FC1FFC1F00000000000000008D
:10659000000000000000E001F807180E0C0C0C0CC5
:1065A000000C0006C003C007000C001800180C18EF
:1065B0000C18180CF807E0030000000000000000B1
:1065C000000000000000000C000E000F000F800D06
:1065D000C00C600C600C300C180C0C0CFC3FFC3F29
:1065E000000C000C000C000C00000000000000007B
:1065F000000000000000F80FF80F180018000C0051
:10660000EC03FC071C0E001C0018001800180C18E6
:106610001C0C180EF807E00300000000000000004A
:10662000000000000000C007F00F381C1818180008
:106630000C00CC03EC0F3C0E1C1C0C180C180C1896
:10664000181C380EF007E0030000000000000000F6
:10665000000000000000FC1FFC1F000C00060006EC
:10666000000380038001C001C000E0006000600002
:10667000700030003000300000000000000000001A
:10668000000000000000E003F007380E180C180CA2
:10669000180C3806F007F007180C0C180C180C181A
:1066A0000C18380CF80FE003000000000000000098
:1066B000000000000000E003F007380E1C0C0C186E
:1066C0000C180C181C1C381EF81BE0190018000CC4
:1066D000000C1C0EF807F001000000000000000094
:1066E00000000000000000000000000000000000AA
:1066F0008001800100000000000000000000000098
:106700000000000080018001000000000000000087
:106710000000000000000000000000000000000079
:106720008001800100000000000000000000000067
:1067300000000000800180010001000180000000D5
:106740000000000000000000000000000000000049
:10675000000000000010001C800FE003F80018008B
:10676000F800E003800F001C001000000000000093
:106770000000000000000000000000000000000019
:1067800000000000F81F000000000000F81F0000DB
:1067900000000000000000000000000000000000F9
:1067A00000000000000000000000000000000000E9
:1067B0000000000008003800F001C007001F0018AA
:1067C000001FC007F00138000800000000000000B2
:1067D000000000000000E003F80F180C0C180C1863
:1067E0000018000C000600038001C000C000C000BB
:1067F00000000000C000C000000000000000000019
:106800000000000000000000E00718180420C22962
:10681000224A114409440944094409221113E20C93
:10682000024004201818E0070000000000000000EB
:1068300000000000000080038003C006C006C00600
:10684000600C600C301830183018F83FF83F1C709E
:106850000C600C6006C006C00000000000000000D4
:10686000000000000000FC03FC0F0C0C0C180C18BE
:106870000C180C0CFC07FC0F0C180C300C300C30F6
:106880000C300C18FC1FFC0700000000000000008A
:10689000000000000000C007F01F38381C300C70EA
:1068A00006600600060006000600060006000660F8
:1068B0000C701C30F01FE00700000000000000001A
:1068C000000000000000FE03FE0F060E061806186A
:1068D0000630063006300630063006300630061820
:1068E0000618060EFE0FFE03000000000000000068
:1068F000000000000000FC3FFC3F0C000C000C00FE
:106900000C000C00FC1FFC1F0C000C000C000C0009
:106910000C000C00FC3FFC3F0000000000000000E9
:10692000000000000000F83FF83F180018001800B1
:1069300018001800F81FF81F180018001800180099
:1069400018001800180018000000000000000000E7
:10695000000000000000E00FF83F3C780E6006E009
:1069600007C00300030003FE03FE03C007C006C008
:106970000EC03CF0F83FE00F0000000000000000F7
:106980000000000000000C300C300C300C300C30DB
:106990000C300C30FC3FFC3F0C300C300C300C3019
:1069A0000C300C300C300C300000000000000000F7
:1069B0000000000000008001800180018001800152
:1069C00080018001800180018001800180018001BF
:1069D00080018001800180010000000000000000B3
:1069E0000000000000000006000600060006000689
:1069F000000600060006000600060006000618064F
:106A000018063807F003E001000000000000000055
:106A100000000000000006300618060C06060603FB
:106A20008601C60066007600DE008E0106030606BB
:106A3000060C06180630066000000000000000008A
:106A400000000000000018001800180018001800CE
:106A50001800180018001800180018001800180076
:106A600018001800F81FF81F0000000000000000C8
:106A70000000000000000EE01EF01EF01EF036D8F0
:106A800036D836D836D866CC66CC66CCC6C6C6C62E
:106A9000C6C6C6C686C386C300000000000000004C
:106AA0000000000000000C301C303C303C306C30EA
:106AB0006C30CC30CC308C310C330C330C360C3683
:106AC0000C3C0C3C0C380C300000000000000000B6
:106AD000000000000000E007F81F1C380E70066080
:106AE00003C003C003C003C003C003C003C00660EB
:106AF0000E701C38F81FE0070000000000000000C6
:106B0000000000000000FC0FFC1F0C380C300C30A3
:106B10000C300C300C18FC1FFC070C000C000C0097
:106B20000C000C000C000C00000000000000000035
:106B3000000000000000E007F81F1C380E7006601F
:106B400003E003C003C003C003C003C007E0066343
:106B50000E3F1C3CF83FE0F700C0000000000000C2
:106B6000000000000000FE0FFE1F06380630063051
:106B700006300638FE1FFE0706030606060C06183A
:106B80000618063006300660000000000000000015
:106B9000000000000000E003F80F1C0C0C180C189B
:106BA0000C001C00F803E00F001E00380630063011
:106BB0000E301C1CF80FE007000000000000000071
:106BC000000000000000FE7FFE7F80018001800148
:106BD00080018001800180018001800180018001AD
:106BE00080018001800180010000000000000000A1
:106BF0000000000000000C300C300C300C300C3069
:106C00000C300C300C300C300C300C300C300C30A4
:106C10000C301818F81FE00700000000000000000A
:106C200000000000000003600630063006300C183B
:106C30000C180C18180C180C380E3006300670079B
:106C400060036003C001C0010000000000000000FC
:106C50000000000000000360C361C361C3616633CC
:106C6000663366336633663366336C1B6C1B6C1B92
:106C70002C1A3C1E380E380E0000000000000000E8
:106C80000000000000000FE00C7018303018700C8D
:106C9000600EC00780038003C003E006700C301C48
:106CA00018180C300E6007E0000000000000000023
:106CB00000000000000003C006600C301C383818CB
:106CC000300C6006E007C003800180018001800174
:106CD00080018001800180010000000000000000B0
:106CE000000000000000FC7FFC7F00600030001806
:106CF000000C000600038001C00060003000180096
:106D00000C000600FE7FFE7F000000000000000077
:106D1000000000000000E003E0036000600060008D
:106D20006000600060006000600060006000600063
:106D30006000600060006000600060006000E003D0
:106D4000E0030000000030003000600060006000E0
:106D5000C000C000C000C0018001800180010003AC
:106D60000003000300060006000000000000000011
:106D7000000000000000E003E00300030003000344
:106D800000030003000300030003000300030003EB
:106D90000003000300030003000300030003E003FB
:106DA000E003000000000000C001C00160036003B8
:106DB000600330063006180C180C000000000000BC
:106DC00000000000000000000000000000000000C3
:106DD00000000000000000000000000000000000B3
:106DE00000000000000000000000000000000000A3
:106DF000000000000000FFFFFFFF00000000000097
:106E00000000000000000C000C000C000C000C0046
:106E10000C00000000000000000000000000000066
:106E20000000000000000000000000000000000062
:106E30000000000000000000000000000000000052
:106E4000F003F8071C0C0C0C000FF00FF80C0C0CE6
:106E50000C0C1C0FF80FF0180000000000000000E0
:106E600000000000000018001800180018001800AA
:106E7000D803F80F380C18181818181818181818FC
:106E80001818380CF80FD8030000000000000000AC
:106E900000000000000000000000000000000000F2
:106EA000C003F007300E180C180018001800180066
:106EB000180C300EF007C0030000000000000000B6
:106EC000000000000000001800180018001800184A
:106ED000C01BF01F301C181818181818181818188C
:106EE0001818301CF01FC01B00000000000000003C
:106EF0000000000000000000000000000000000092
:106F0000C003F00F300C1818F81FF81F18001800F5
:106F10003818301CF00FC00700000000000000000F
:106F2000000000000000800FC00FC000C000C000C3
:106F3000F007F007C000C000C000C000C000C000E3
:106F4000C000C000C000C000000000000000000041
:106F50000000000000000000000000000000000031
:106F6000E00DF80F180E0C0C0C0C0C0C0C0C0C0C8F
:106F70000C0C180EF80FE00D000C0C0C1C06F8079A
:106F8000F001000000001800180018001800180098
:106F9000D807F80F381C18181818181818181818C7
:106FA0001818181818181818000000000000000021
:106FB000000000000000C000C00000000000000051
:106FC000C000C000C000C000C000C000C000C000C1
:106FD000C000C000C000C0000000000000000000B1
:106FE000000000000000C000C00000000000000021
:106FF000C000C000C000C000C000C000C000C00091
:10700000C000C000C000C000C000C000C000F80048
:107010007800000000000C000C000C000C000C00BC
:107020000C0C0C060C038C01CC006C00FC009C01C9
:107030008C030C030C060C0C000000000000000088
:10704000000000000000C000C000C000C000C00080
:10705000C000C000C000C000C000C000C000C00030
:10706000C000C000C000C000000000000000000020
:107070000000000000000000000000000000000010
:107080007C3CFF7EC7E383C183C183C183C183C1CD
:1070900083C183C183C183C10000000000000000E0
:1070A00000000000000000000000000000000000E0
:1070B0009807F80F381C18181818181818181818E6
:1070C0001818181818181818000000000000000000
:1070D00000000000000000000000000000000000B0
:1070E000C003F00F300C18181818181818181818B2
:1070F0001818300CF00FC003000000000000000062
:10710000000000000000000000000000000000007F
:10711000D803F80F380C1818181818181818181859
:107120001818380CF80FD8031800180018001800A9
:107130001800000000000000000000000000000037
:10714000C01BF01F301C1818181818181818181819
:107150001818301CF01FC01B001800180018001869
:107160000018000000000000000000000000000007
:10717000B007F00370003000300030003000300005
:10718000300030003000300000000000000000003F
:1071900000000000000000000000000000000000EF
:1071A000E003F003380E180C3800F003C007000CA1
:1071B000180C380EF007E00300000000000000008B
:1071C00000000000000000008000C000C000C000FF
:1071D000F007F007C000C000C000C000C000C00041
:1071E000C000C000C00780070000000000000000D1
:1071F000000000000000000000000000000000008F
:1072000018181818181818181818181818181818FE
:107210001818381CF01FE0190000000000000000E2
:10722000000000000000000000000000000000005E
:107230000C18180C180C180C3006300630066003B9
:1072400060036003C001C0010000000000000000F6
:10725000000000000000000000000000000000002E
:10726000C141C141C36163636363636336363636CC
:1072700036361C1C1C1C1C1C0000000000000000FA
:1072800000000000000000000000000000000000FE
:107290001C38381C300C6006600360036003600318
:1072A0006006300C381C1C38000000000000000094
:1072B00000000000000000000000000000000000CE
:1072C0001830301830187018600C600CE00CC006D4
:1072D000C00680038003800380018001C001F000AC
:1072E000700000000000000000000000000000002E
:1072F000FC1FFC1F000C000600038001C0006000A2
:1073000030001800FC1FFC1F0000000000000000FF
:1073100000000000000000038001C000C000C000A9
:10732000C000C000C000600060003000600040008D
:10733000C000C000C000C000C000C0008001000349
:1073400000000000000080018001800180018001B8
:107350008001800180018001800180018001800125
:107360008001800180018001800180018001800115
:107370008001000000006000C000C00180018001A9
:10738000800180018001000300030006000300016A
:10739000800180018001800180018001C0006000C7
:1073A00000000000000000000000000000000000DD
:1073B00000000000F010F81F080F0000000000009F
:1073C00000000000000000000000000000000000BD
:1073D00000000000000000000000000000000000AD
:1073E00000000000000000183C3C3C181800181871
:1073F000000000000000006666660000000000005B
:107400000000000000000036367F3636367F363604
:10741000000000000018183C666030180C06663C3E
:1074200018180000000070D8DA760C18306E5B1B5C
:107430000E000000000000386C6C38606F66663B20
:1074400000000000000000181818000000000000F4
:10745000000000000000000C1818303030303018E8
:10746000180C00000000003018180C0C0C0C0C1844
:10747000183000000000000000361C7F1C360000A1
:1074800000000000000000000018187E181800001E
:1074900000000000000000000000000000001C1CB4
:1074A0000C180000000000000000007E000000003A
:1074B00000000000000000000000000000001C1C94
:1074C0000000000000000006060C0C1818303060A8
:1074D000600000000000001E333737333B3B331E93
:1074E000000000000000000C1C7C0C0C0C0C0C0CB0
:1074F000000000000000003C6666060C1830607E4C
:10750000000000000000003C6666061C0666663C43
:10751000000000000000003030363636667F060678
:10752000000000000000007E6060607C06060C78B1
:10753000000000000000001C18307C666666663C97
:10754000000000000000007E060C0C1818303030DF
:10755000000000000000003C6666763C6E66663CFB
:10756000000000000000003C666666663E0C1838AD
:107570000000000000000000001C1C0000001C1C9B
:107580000000000000000000001C1C0000001C1C8B
:107590000C180000000000060C18306030180C06B3
:1075A000000000000000000000007E007E000000DF
:1075B000000000000000006030180C060C1830605D
:1075C000000000000000003C66660C181800181847
:1075D000000000000000007EC3C3CFDBDBCFC07F14
:1075E00000000000000000183C6666667E66666665
:1075F000000000000000007C6666667C6666667CB3
:10760000000000000000003C666660606066663C4A
:1076100000000000000000786C66666666666C78A4
:10762000000000000000007E6060607C6060607EA2
:10763000000000000000007E6060607C60606060B0
:10764000000000000000003C666660606E66663EFA
:1076500000000000000000666666667E666666667C
:10766000000000000000003C181818181818183CFA
:107670000000000000000006060606060666663CDE
:107680000000000000000066666C6C786C6C66663A
:107690000000000000000060606060606060607E6C
:1076A000000000000000006363776B6B6B63636333
:1076B000000000000000006363737B6F6763636317
:1076C000000000000000003C666666666666663C78
:1076D000000000000000007C6666667C6060606000
:1076E000000000000000003C666666666666663C58
:1076F0000C0600000000007C6666667C6C666666B0
:10770000000000000000003C666030180C06663C7B
:10771000000000000000007E18181818181818182B
:107720000000000000000066666666666666663CED
:1077300000000000000000666666666666663C182B
:10774000000000000000006363636B6B6B3636362D
:107750000000000000000066663418182C6666669B
:1077600000000000000000666666663C18181818E5
:10777000000000000000007E06060C183060607EED
:10778000000000000000003C30303030303030303D
:1077900030303C000000006060303018180C0C06DF
:1077A000060000000000003C0C0C0C0C0C0C0C0C37
:1077B0000C0C3C0000183C660000000000000000BB
:1077C00000000000000000000000000000000000B9
:1077D0000000FF0000000018181800000000000062
:1077E0000000000000000000003C06063E66663E09
:1077F0000000000000000060607C66666666667CD3
:107800000000000000000000003C66606060663C14
:107810000000000000000006063E66666666663EE2
:107820000000000000000000003C66667E60603CD6
:10783000000000000000001E3030307E303030305C
:107840000000000000000000003E66666666663EBE
:1078500006067C0000000060607C66666666666600
:107860000000000000001818007818181818187E7A
:107870000000000000000C0C003C0C0C0C0C0C0C6C
:107880000C0C7800000000606066666C786C6666C0
:107890000000000000000078181818181818187E4A
:1078A0000000000000000000007E6B6B6B6B6B63E0
:1078B0000000000000000000007C666666666666E8
:1078C0000000000000000000003C66666666663C42
:1078D0000000000000000000007C66666666667CB2
:1078E0006060600000000000003E66666666663EFE
:1078F000060606000000000000666E7060606060B2
:107900000000000000000000003E60603C06067CB5
:107910000000000000000030307E30303030301E7B
:107920000000000000000000006666666666663EB5
:1079300000000000000000000066666666663C18F5
:10794000000000000000000000636B6B6B6B3636BC
:1079500000000000000000000066663C183C6666FF
:107960000000000000000000006666666666663C77
:107970000C18F00000000000007E060C1830607E3D
:10798000000000000000000C1818183060301818B3
:10799000180C0000000000181818181818181818EB
:1079A00018181800000000301818180C060C1818C9
:1079B0001830000000000071DB8E000000000000A5
:1079C00000000000000000000000000000000000B7
:1079D0000000000000000000000000000000002087
:1079E00000200020002000200020002000000020B7
:1079F0000000000000000050005000500000000097
:107A0000000000000000000000000000000000096D
:107A100000090012007F0012007F001200240024E1
:107A200000000000001000380054005000500038E2
:107A30000014005400540038001000000000803092
:107A400000490049004AC032200520092009C01021
:107A5000000000000000000C0012001200140018CA
:107A6000002500230023801D0000000000000040CE
:107A70000040004000000000000000000000000086
:107A8000000000000000000800100010002000208E
:107A90000020002000200020001000100000004006
:107AA0000020002000100010001000100010001036
:107AB0000020002000000020007000200050000086
:107AC00000000000000000000000000000000000B6
:107AD000000000080008007F000800080000000007
:107AE0000000000000000000000000000000000096
:107AF0000000000000000020002000400000000006
:107B00000000000000000000007000000000000005
:107B10000000000000000000000000000000000065
:107B20000000000000000020000000000000001025
:107B30000010001000200020002000200040004025
:107B40000000000000000010002800440044004431
:107B50000044004400280010000000000000001055
:107B60000030005000100010001000100010001035
:107B7000000000000000003000480044000400083D
:107B8000001000200040007C0000000000000030D9
:107B900000480004000800100008004400480030BD
:107BA000000000000000000800180018002800284D
:107BB0000048007C00080008000000000000003CB5
:107BC00000200040007000480004004400480030DD
:107BD0000000000000000018002400400050006871
:107BE0000044004400280010000000000000007C59
:107BF00000040008001000100010002000200020E9
:107C000000000000000000100028004400280010C0
:107C100000280044002800100000000000000010B0
:107C2000002800440044002C0014000400480030E8
:107C30000000000000000000000000200000000024
:107C40000000000000000020000000000000000014
:107C500000000020000000000000000000000020E4
:107C60000020004000000000000400080030004038
:107C700000300008000400000000000000000000C8
:107C80000000007C00000000007C000000000000FC
:107C90000000000000000000004000200018000468
:107CA0000018002000400000000000000000003824
:107CB00000640044000400080010001000000010E0
:107CC000000000000000800F4010A02EA0512051A5
:107CD000205120512053C04D2020401000000008AA
:107CE0000014001400140022003E00220041004154
:107CF000000000000000003C002200220022003CA6
:107D0000002200220022003C000000000000000EC3
:107D10000011002100200020002000210011000E91
:107D2000000000000000003C002200210021002192
:107D3000002100210022003C000000000000003E65
:107D4000002000200020003E002000200020003EF7
:107D5000000000000000003E002000200020003C49
:107D60000020002000200020000000000000000E85
:107D70000011002100200027002100210011000E29
:107D80000000000000000021002100210021003F30
:107D9000002100210021002100000000000000203F
:107DA00000200020002000200020002000200020D3
:107DB000000000000000000800080008000800089B
:107DC00000080048004800300000000000000022C9
:107DD0000024002800280038002800240024002265
:107DE00000000000000000200020002000200020F3
:107DF000002000200020003E000000000000802045
:107E0000803180318031802A802A802A802A802413
:107E1000000000000000002100310031002900298D
:107E20000025002300230021000000000000000CBA
:107E30000012002100210021002100210012000C6D
:107E4000000000000000003C002200220022003C54
:107E50000020002000200020000000000000000C96
:107E60000012002100210021002100210016000D38
:107E7000000100000000003E002100210021003E22
:107E80000024002200218020000000000000001CCF
:107E9000002200220020001C000200220022001C00
:107EA000000000000000003E000800080008000874
:107EB0000008000800080008000000000000002181
:107EC0000021002100210021002100210012000CCE
:107ED00000000000000000410041002200220022BA
:107EE00000140014001400080000000000004044CA
:107EF000404A402A802A802A802A802A802A00112B
:107F000000000000000000410022001400140008DE
:107F10000014001400220041000000000000004195
:107F200000220022001400080008000800080008D1
:107F3000000000000000007E0002000400080010A5
:107F4000001000200040007E000000000000003013
:107F50000020002000200020002000200020002021
:107F600000200020000000400040002000200020F1
:107F70000020002000100010000000000000006041
:107F800000200020002000200020002000200020F1
:107F900000200020000000100028002800280044D5
:107FA00000000000000000000000000000000000D1
:107FB00000000000000000000000000000000000C1
:107FC0000000007E004000200000000000000000D3
:107FD00000000000000000000000000000000000A1
:107FE0000000003800440004003C00440044003C11
:107FF0000000000000000040004000580064004401
:10800000004400440064005800000000000000002C
:1080100000000030004800400040004000480030B0
:10802000000000000000000400040034004C004484
:1080300000440044004C0034000000000000000038
:108040000000003800440044007C00400044003838
:108050000000000000000060004000E00040004020
:108060000040004000400040000000000000000010
:1080700000000034004C004400440044004C003434
:108080000004004400000040004000580064004428
:108090000044004400440044000000000000004090
:1080A0000000004000400040004000400040004010
:1080B00000000000000000400000004000400040C0
:1080C00000400040004000400040004000000040F0
:1080D0000040004800500060005000500048004838
:1080E0000000000000000040004000400040004050
:1080F0000040004000400040000000000000000080
:1081000000000052006D0049004900490049004943
:10811000000000000000000000000058006400445F
:10812000004400440044004400000000000000003F
:10813000000000380044004400440044004400387B
:10814000000000000000000000000058006400442F
:10815000004400440064005800400040000000005B
:1081600000000034004C004400440044004C003443
:108170000004000400000000000000500060004007
:1081800000400040004000400000000000000000EF
:108190000000003000480040003000080048003077
:1081A0000000000000000040004000E000400040EF
:1081B000004000400040006000000000000000009F
:1081C000000000440044004400440044004C0034DB
:1081D00000000000000000000000004400440028EF
:1081E0000028002800280010000000000000000007
:1081F0000000004900490055005500550055002277
:1082000000000000000000000000004400280028DA
:1082100000100028002800440000000000000000BA
:10822000000000440044002800280028001000102E
:10823000001000100000000000000078000800108E
:108240000020002000400078000000000000001026
:1082500000200020002000200040002000200020FE
:10826000002000200000002000200020002000202E
:1082700000200020002000200020002000000040FE
:1082800000200020002000200010002000200020FE
:1082900000200020000000000000000000740058D2
:1082A00000000000000000000000000000000000CE
:1082B000000000000000000000000010101010106E
:1082C0001000100000000028282800000000000016
:1082D00000000014143E14287C28280000001038E8
:1082E000545038141454381000000044A8A85014F6
:1082F0001A2A240000000020505020E898986000BE
:1083000000000080808000000000000000000040AD
:1083100080808080808080800000008040404040DD
:108320004040404000000040E040A000000000004D
:1083300000000000002020F82020000000000000C5
:1083400000000000000040400000000000000000AD
:10835000C00000000000000000000000000040001D
:10836000000000202020404080808000000000604D
:1083700090909090909060000000002060A02020DD
:108380002020200000000060901010204080F000AD
:10839000000000609010601010906000000000105D
:1083A00030505090F8101000000000704080E01035
:1083B00010906000000000609080A0D0909060005D
:1083C000000000F01020202040404000000000602D
:1083D0009090609090906000000000609090B0508D
:1083E000109060000000000000400000000040000D
:1083F00000000000004000000000404000000000BD
:108400000010608060100000000000000000F0001C
:10841000F00000000000000000806010608000009C
:108420000000006090102040400040000000001C50
:10843000225BA5A5A5A59E410000002050505050EC
:1084400070888800000000F08888F0888888F00034
:10845000000000384484808084443800000000E03C
:10846000908888888890E000000000F88080F8807C
:108470008080F8000000007840407040404040009C
:10848000000000384484809C844438000000008848
:108490008888F88888888800000000808080808034
:1084A000808080000000001010101010909060007C
:1084B0000000008890A0E0A090908800000000805C
:1084C000808080808080F00000000082C6C6AAAA5A
:1084D000AAAA920000000084C4A4A494948C8400EE
:1084E000000000304884848484483000000000F09C
:1084F000888888F080808000000000304884848470
:1085000084583404000000784444785048444200C1
:10851000000000708880700888887000000000F8F3
:1085200020202020202020000000008484848484D7
:10853000844830000000008888505050505020007F
:1085400000000092AAAAAAAAAAAA440000000084D5
:1085500048483030484884000000008850502020AF
:1085600020202000000000F8081020204080F800A3
:10857000000000C0808080808080808000000080BB
:108580008040404040202000000000C0404040406B
:108590004040404000000040A0A0A00000000000BB
:1085A0000000000000000000000000F80000008053
:1085B00040000000000000000000000000E010701B
:1085C000909070000000008080A0D09090D0A0001B
:1085D00000000000006090808090600000000010AB
:1085E0001050B09090B0500000000000006090F07B
:1085F00080906000000000C080C08080808080008B
:10860000000000000050B09090B0501000000080BA
:1086100080A0D0909090900000000080008080802A
:1086200080808000000000800080808080808080CA
:10863000000000808090A0C0A0909000000000800A
:1086400080808080808080000000000000A6DA9298
:10865000929292000000000000A0D09090909000B4
:10866000000000000060909090906000000000000A
:1086700000A0D09090D0A080000000000050B090EA
:1086800090B050100000000000A0C08080808000EA
:108690000000000000E0904020906000000000809A
:1086A00080C080808080C00000000000009090901A
:1086B00090B050000000000000888850505020000A
:1086C000000000000092AAAAAAAA4400000000002C
:1086D0000088502020508800000000000088505082
:1086E000502020200000000000F010204080F0000A
:1086F000000000C0808080008080808000000080BA
:108700008080808080808080000000C040404020C9
:1087100040404040000000000000E8B000000000C1
:108720000000000000000000404040404040004089
:10873000A0A0A00000000000002424FE48FC48483F
:10874000385450381414543844A8A850141A2A2401
:1087500010282810744C4C3010101000000000003D
:108760000810101010101008100808080808081049
:10877000000024183C182400000010107C10100089
:108780000000000000080810000000003C0000008D
:108790000000000000001818080808101020202011
:1087A0001824242424242418081828080808080851
:1087B000384400040810207C1824041804042418E9
:1087C000040C1424447E04043C202038040424189F
:1087D00018242038242424183C04080808101010F9
:1087E0001824241824242418182424241C042418AD
:1087F0000000100000100000000008000008100039
:1088000000000418201804000000003C003C000098
:10881000000020180418200018240408101000106C
:108820003C4299A5A59D4238384444447C44444484
:1088300078444478444444781C2242404042221CFC
:1088400070484444444448707C40407C4040407CF4
:108850003C202038202020201C2242404E42221C56
:108860004444447C44444444101010101010101030
:108870000404040404242418444850705048484414
:10888000202020202020203C82C6C6AAAAAAAA9284
:10889000426252524A4A46421824424242422418F4
:1088A00078444444784040401824424242422C1AC2
:1088B000784444785048444238444038044444386A
:1088C0007C101010101010104242424242422418F4
:1088D000444428282828281092AAAAAAAAAAAA4466
:1088E0004224241818242442442828101010101060
:1088F0007C0408101020407C1C1010101010101C5C
:1089000010100808080804041C0404040404041CCF
:1089100010284400000000000000000000000000DB
:108920002010100000000000000018041C24241C6B
:10893000202028342424342800001824202024183F
:108940000404142C24242C14000018243C20241883
:1089500000181010181010100018242418042418DF
:10896000202028342424242410001010101010106B
:10897000080008080808281020202428302824246B
:1089800010101010101010100000A6DA929292929F
:10899000000028342424242400001824242424182B
:1089A000002834243820202000142C241C04040423
:1089B00000002C302020202000001824100824184B
:1089C00000103810101010180000242424242C1437
:1089D0000000444428282810000092AAAAAAAA4409
:1089E00000004428101028440028282810101010D7
:1089F00000003C040810203C000810102010100853
:108A000010101010101010100010080804080810A2
:108A100000000060920C0000222A2B2C3A3B3C3DC7
:088A20003E3F5B5D7C7F00001E
:108A2800FFFF1000007A030A0000000000000000A9
:088A380001020304060708090E
:0400000508000000EF
:00000001FF
