:020000040800F2
:10000000D010002099010008A1010008A3010008F8
:10001000A5010008A7010008A901000800000000D0
:10002000000000000000000000000000AB0100081C
:10003000AD01000800000000AF01000875090008CC
:10004000B3010008B3010008B3010008B3010008C0
:10005000B3010008B3010008B3010008B3010008B0
:10006000B3010008B3010008B3010008B3010008A0
:10007000B3010008B3010008B3010008B301000890
:10008000B3010008B3010008B3010008B301000880
:10009000B3010008B3010008B3010008B301000870
:1000A000B3010008B3010008B3010008B301000860
:1000B000B3010008B3010008B3010008B301000850
:1000C000B3010008B3010008B3010008B301000840
:1000D000B3010008B3010008350A0008B3010008A5
:1000E000B3010008B3010008B301000800F002F8F2
:1000F00000F042F80AA090E8000C82448344AAF180
:100100000107DA4501D100F037F8AFF2090EBAE87D
:100110000F0013F0010F18BFFB1A43F0010318473B
:100120004C1800006C180000103A24BF78C878C141
:10013000FAD8520724BF30C830C144BF04680C60ED
:10014000704700000023002400250026103A28BF35
:1001500078C1FBD8520728BF30C148BF0B60704739
:10016000642900F0B780732900F07B81002070477C
:100170001FB51FBD10B510BD00F08EF91146FFF779
:10018000F7FF00F06DFF00F0ACF903B4FFF7F2FFEA
:1001900003BC00F0B3F90000094880470948004754
:1001A000FEE7FEE7FEE7FEE7FEE7FEE7FEE7FEE727
:1001B000FEE7FEE704480549054A064B7047000084
:1001C00095090008ED000008D00A0020D01000209A
:1001D000D00C0020D00C00200FB4044910B503AAA5
:1001E000029800F043F910BC5DF814FB30000020C9
:1001F0000FB41CB5074B06AA7B44694600900598CE
:1002000000F005F90020694600F014F91CBC5DF807
:1002100014FB0000390200002DE9F0410E460446AF
:10022000002020622046E168884730B3252805D0A9
:10023000D4E901219047206A401CF2E7E16820469A
:1002400000278847050018D0A5F14100192802D8D9
:1002500020354FF400673246294620462760FFF7D5
:100260007FFF40B1012804D0F61D26F007060836AE
:10027000D8E7361DD6E72846DAE7206ABDE8F081E0
:1002800070B50C460546012A05D02878800600D5B1
:10029000EA69002302E0012305E05B1C934202D2DD
:1002A000E05C0028F9D1A869E618C01AA861286A9C
:1002B000184428622846AFF3008004E0D5E9012104
:1002C00014F8010B9047B442F8D32846AFF30080EE
:1002D00070BD00002DE9F041064600241068752924
:1002E000314616A510D0AFF30080002802DA404254
:1002F00013A507E031688A0701D512A502E0490776
:1003000004D511A5012401E0AFF3008000210A22E9
:1003100006F1240709E0B0FBF2FCB0FBF2F302FBAC
:100320001C00303078541846491C0028F3D123466D
:100330002A463046BDE8F04100F00BB8000000004E
:100340002D0000002B0000002000000070477047C7
:1003500070472DE9F0470D4699469246044600F154
:1003600024080168880604D5E06921F010012160A5
:1003700000E00120A84201DD471B00E00027A16941
:100380007A1902EB0900081AA0612078C00602D48D
:100390002046AFF30080002608E0D4E901211AF8D6
:1003A00006009047206A401C761C20624E45F4DB14
:1003B0002078C0060AD52046AFF3008006E0D4E9D5
:1003C000012130209047206A401C2062381EA7F18E
:1003D0000107F4DC07E0D4E9012118F80500904793
:1003E000206A401C2062281EA5F10105F3DC20468E
:1003F000AFF300802078000602D50220BDE8F08728
:100400000120FBE701694A1C02610878704700B5CA
:100410008FB0CDE901310021059105497944CDE93D
:10042000031011466846FFF7F7FE0FB000BD00004D
:10043000E5FFFFFF0A6802F8010B0A60704710B57C
:10044000436913B1AFF3008001E0FFF719FF01200A
:1004500010BD127800F124010A7000224A700122B6
:10046000EDE711684FF0FF32E9E70000074B70B588
:100470000D467B44FFF7CBFF0446284600F008F802
:1004800010B14FF0FF3070BD204670BD370B00003B
:10049000007B00F080007047754600F02BF8AE46F8
:1004A00005006946534620F00700854618B020B580
:1004B000FFF780FEBDE820404FF000064FF0000738
:1004C0004FF000084FF0000B21F00701AC46ACE8FC
:1004D000C009ACE8C009ACE8C009ACE8C0098D4669
:1004E000704710B50446AFF300802046BDE81040C9
:1004F000FFF74BBE004870476C0A002001491820E6
:10050000ABBEFEE7260002007047000010B50121D7
:10051000042000F0F3F804200449C8700220887019
:1005200010200880024800F005F810BD34000020BB
:10053000000801402DE9F041024600250026002078
:1005400000230024002791F803C00CF00F0591F858
:1005500003C00CF0100CBCF1000F03D091F802C0E6
:100560004CEA050591F800C0BCF1000F31D01468C9
:1005700000202BE04FF0010C0CFA00F3B1F800C0A2
:100580000CEA03069E4220D183004FF00F0C0CFAB8
:1005900003F7BC4305FA03FC4CEA040491F803C0DA
:1005A000BCF1280F06D14FF0010C0CFA00FCC2F888
:1005B00014C00AE091F803C0BCF1480F05D14FF018
:1005C000010C0CFA00FCC2F810C0401C0828D1D362
:1005D0001460B1F800C0BCF1FF0F34DD5468002096
:1005E0002EE000F1080C4FF0010808FA0CF3B1F806
:1005F00000C00CEA03069E4221D183004FF00F0C8D
:100600000CFA03F7BC4305FA03FC4CEA040491F826
:1006100003C0BCF1280F05D100F1080C08FA0CF852
:10062000C2F8148091F803C0BCF1480F07D100F163
:10063000080C4FF0010808FA0CF8C2F81080401CB2
:100640000828CED35460BDE8F081024600209368AC
:100650000B400BB1012000E0002070474161704762
:10066000016170470AB1016100E04161704700001B
:1006700010B501210C2000F041F810200C49C87081
:1006800002208870082008800A48FFF753FF48F2CC
:100690002000074908800848FFF74CFF082105485B
:1006A000FFF7DEFF48F220010348FFF7D7FF10BD38
:1006B00034000020000C01400008014029B1064A26
:1006C000D2690243044BDA6104E0034AD2698243EF
:1006D000014BDA61704700000010024029B1064A60
:1006E00012690243044B1A6104E0034A126982430F
:1006F000014B1A61704700000010024029B1064A00
:1007000092690243044B9A6104E0034A926982436E
:10071000014B9A61704700000010024029B1064A5F
:10072000D2680243044BDA6004E0034AD268824391
:10073000014BDA60704700000010024030B5002124
:100740000022002400232D4D6D6805F00C0121B11D
:10075000042905D0082923D105E0294D056022E0B0
:10076000274D05601FE0254D6D6805F47012234D7F
:100770006D6805F48034022505EB92421CB9214DC9
:10078000554305600BE01D4D6D6805F400351DB146
:100790001C4D5543056002E0194D5543056002E0CC
:1007A000174D056000BF00BF144D6D6805F0F001E6
:1007B0000909154D6B5C0568DD4045600F4D6D689E
:1007C00005F4E061090A104D6B5C4568DD40856009
:1007D0000A4D6D6805F46051C90A0B4D6B5C4568A4
:1007E000DD40C560054D6D6805F44041890B074D3E
:1007F0006B5CC568B5FBF3F5056130BD00100240C8
:1008000000127A0000093D00380000204800002056
:1008100010B501210C20FFF771FF10201349C8709B
:10082000012088704FF4467008801148FFF782FE5F
:1008300010200E49C870012088704FF44060088075
:100840000B48FFF777FE10200849C8700120887018
:10085000C02008800748FFF76DFE80210548FFF79C
:10086000FFFE40210348FFF7F9FE10BD34000020D1
:10087000000C01400008014010B500F001F810BD67
:100880000CB50020019000903348006840F480309F
:100890003149086000BF3048006800F40030009023
:1008A0000198401C0190009818B90198B0F5A06F0C
:1008B000F1D12948006800F4003010B10120009007
:1008C00001E0002000900098012843D123480068EF
:1008D00040F01000214908600846006820F003003D
:1008E00008600846006840F0020008601A48406846
:1008F000194948600846406848600846406840F426
:10090000806048600846406820F47C1048600846D3
:10091000406840F4E81048600846006840F0807085
:10092000086000BF0C48006800F000700028F9D093
:100930000948406820F003000749486008464068BD
:1009400040F00200486000BF0348406800F00C001F
:100950000828F9D10CBD0000001002400020024020
:100960004FF0E020806902490968C0EB01607047E0
:100970002C00002002480068401C014908607047B4
:100980002C0000206FF07F404FF0E02148610720ED
:100990000861704710B51348006840F00100114924
:1009A000086008464068104908400E4948600846FB
:1009B00000680E4908400B4908600846006820F4AA
:1009C000802008600846406820F4FE0048604FF42C
:1009D0001F008860FFF750FF4FF000600449086077
:1009E00010BD0000001002400000FFF8FFFFF6FEFF
:1009F00008ED00E070B505460C4604E02178284675
:100A000000F005F8641C20780028F7D170BD70B59F
:100A100004460D46A0880020A0802946204600F00C
:100A200068F900BF8021204600F0BFF80028F9D007
:100A300070BD000008B5204800F0A8F800909DF8AF
:100A400000101E4800F055F91D480068012832D1F9
:100A50001C480078202806D19DF80000222802D1E9
:100A60000120194908601848006801281FD19DF825
:100A700000001649164A1268885415480068401C40
:100A80001349086008460068401E1049085C0A289F
:100A90000DD100200E4908600B49086001200D4966
:100AA0000870002240F22551034800F08BF89DF8B1
:100AB00000000449087008BD0044004000380140AF
:100AC0001400002008000020100000205A0300201D
:100AD0000C0000201C00002021B1828942F4005249
:100AE000828104E082894DF6FF731A40828170474B
:100AF00010B504462048844209D101218803FFF73C
:100B00000DFE00214FF48040FFF708FE32E01B4845
:100B1000844209D101214804FFF7E0FD00214FF490
:100B20000030FFF7DBFD25E01548844209D10121A3
:100B30008804FFF7D3FD00214FF48020FFF7CEFD9E
:100B400018E01048844209D10121C804FFF7C6FD0E
:100B500000214FF40020FFF7C1FD0BE00A4884425A
:100B600008D101210805FFF7B9FD00214FF48010DD
:100B7000FFF7B4FD10BD0000003801400044004004
:100B800000480040004C00400050004070B5054651
:100B900000BF2021284600F008F80028F9D0284698
:100BA00000F0A2F8C4B2204670BD02460020B1F5A4
:100BB000007F00D100BF13880B400BB1012000E083
:100BC00000207047F0B503460024002600250020D1
:100BD00040F66A17B94200D100BF1846C1F342146B
:100BE00001F01F06012707FA06F5012C01D10C3090
:100BF00004E0022C01D1103000E014301AB1076873
:100C00002F43076002E00768AF430760F0BD0000B4
:100C10002DE9F04786B005460E460024A24600BFE7
:100C2000A1460027B08900B100BF2F462C8A4CF6A0
:100C3000FF700440F08804432C82AC894EF6F31018
:100C40000440B08831890843718908430443AC816A
:100C5000AC8A4FF6FF400440B0890443AC8201A83F
:100C6000FFF76CFD1F48874202D1DDF810A001E0BC
:100C7000DDF80CA0A88900F4004040B10AEBCA00DE
:100C800000EB0A1031684900B0FBF1F807E00AEB0D
:100C9000CA0000EB0A1031688900B0FBF1F864204B
:100CA000B8FBF0F004012009642101FB1089A88938
:100CB00000F4004040B1322000EBC900B0FBF1F07D
:100CC00000F00700044308E0322000EB0910642123
:100CD000B0FBF1F000F00F0004432C8106B0BDE83A
:100CE000F08700000038014001468888C0F3080002
:100CF0007047C1F3080282807047000010B51748A2
:100D0000FFF7F6FE012144F20400FFF7F7FC4FF471
:100D10008060134908800420C8701248FFF70AFC5D
:100D20004FF400700E490880032088701820C870A6
:100D30000C48FFF7FFFB4FF416500B4908600C20DE
:100D400048810020888188800881C8800348FFF797
:100D50005FFF01210148FFF7BFFE10BD00380140D1
:100D600034000020000801405C0A002010B5214832
:100D7000FFF7BEFE01214804FFF7A0FC012104207B
:100D8000FFF7BCFC08201C4908800420C8701B48E1
:100D9000FFF7D0FB04201849088003208870182032
:100DA000C8701648FFF7C6FB4FF416501449086088
:100DB0000C2048810020888188800881C8800D48E7
:100DC000FFF726FF01210B48FFF786FE012240F2C4
:100DD00025510848FFF7F6FE262000F01F020121EA
:100DE00091404209920002F1E022C2F8001100BFD6
:100DF00010BD000000440040340000200008014005
:100E00005C0A002010B5044604E04FF47A7000F04C
:100E100004F8641E002CF8D110BD00B50246FFF79F
:100E20009FFD00EBC20300BFFFF79AFD181A0028D0
:100E3000FADC00BD08B501210820FFF75FFC0120A6
:100E4000ADF8000003208DF8020004208DF80300A7
:100E500069460248FFF76EFB08BD0000000C014028
:100E600008B501210820FFF749FC0120ADF800007A
:100E700003208DF8020010208DF803006946024817
:100E8000FFF758FB08BD0000000C014010B500BF83
:100E900001210C48FFF7D9FB0028F9D02820FFF7E3
:100EA000BCFF01210748FFF7D0FB012808D100BF94
:100EB00001210448FFF7C9FB0128F9D0012010BD2A
:100EC0000020FCE7000C014070B50024002508E07C
:100ED0004FF6FF7000EA4404FFF7D8FF0443681C94
:100EE00085B2082DF4DB204670BD000070B50446C5
:100EF000002500F033F800F051F858BB00BF00F0B7
:100F00004DF80028FBD000BF00F048F80128FBD0C6
:100F1000002504E0FFF7D8FF6055681C85B2052D59
:100F2000F8DB00BF00F03AF80028FBD0FFF798FF8D
:100F300001210948FFF794FB207861780844A178E3
:100F40000844E1780844C6B22079B04201D00120BB
:100F500070BD00BF0020FBE7000C014010B5FFF79B
:100F60007FFF01210C48FFF77BFB4FF47A70FFF7FE
:100F700054FF01210848FFF771FB44F63820FFF7C2
:100F80004CFF01210448FFF76BFB1E20FFF745FFD4
:100F9000FFF750FF10BD0000000C014010B501210B
:100FA0000148FFF752FB10BD000C014070B504462C
:100FB0000D46A1B20548FFF79CFE00BF8021034803
:100FC000FFF7F3FD0028F9D0204670BD0044004033
:100FD00010B516A11948FFF70DFD6420FFF712FFA9
:100FE00017A11648FFF706FD6420FFF70BFF17A1B6
:100FF0001248FFF7FFFC4FF47A70FFF703FF0BA1D5
:101000000E48FFF7F7FC6420FFF7FCFE0CA10B482D
:10101000FFF7F0FC6420FFF7F5FE0CA10748FFF78F
:10102000E9FC6420FFF7EEFE10BD000041542B4D9B
:101030004F44453D544553540D0A000000440040C0
:1010400041542B544553543D3F0A000041542B5406
:101050004553543D52464346472C3433330D0A0022
:1010600008B5FFF78FFCFFF749FEFFF77FFEFFF79C
:10107000CFFBFFF74BFAFFF7FBFA6420FFF7C2FE46
:101080004FF444713348FFF7EBFAFFF7A1FF5FE03D
:101090003148FFF72BFF002831D12F49487800F065
:1010A000A9FA824600222D4B00F04CF906460F4665
:1010B0002949087800F09EFA804632463B4600F007
:1010C00099F8044600F064F8254908602249C87878
:1010D00000F090FA06460022204B00F033F9044657
:1010E0000D461D49887800F085FA804622462B4639
:1010F00000F080F8824600F04BF81A490860184862
:10110000006800F0C9FBC4B21648006800F0C4FBD8
:10111000C5B22B46144A15A116480094FFF768F88B
:10112000144915A0FFF758F86420FFF76BFE4FF441
:1011300080610848FFF789FA80F0010422464FF4E5
:1011400080610448FFF78EFA40F6B830FFF75AFE88
:101150009EE70000000C01401D000020000024401C
:1011600028000020240000200000002025732564B2
:1011700025640A005A04002041542B544553543D21
:1011800054584C525354522C25730D0A0000000041
:1011900021F00042A2F16052B2F5801F01F000433D
:1011A00028BFD2F17F6C0BD95FEA001C43EAC20270
:1011B00042EB507018BF704728BF20F00100704705
:1011C000B2F5801FBCBF184670474FEA410C1CF5B2
:1011D000001F02D2084600F0C4BB70B500F01DFA33
:1011E00000000089FFF7F6BF4FF00040A0F5800037
:1011F0007047000010B591EA030F48BF83F0004329
:1012000000F16882841A71EB030C05D2121943EBCA
:101210000C03001B61EB0C01DFF824E14FEA1154D1
:10122000A4EB135C1EEA430F18BF9EEA445F73D021
:1012300023EA0E03DCF1200E21EA045143F480136B
:1012400032D322FA0CFE10EB0E0023FA0CFE41EB17
:101250000E01CCF1200E03FA0EFE10EB0E0051F140
:101260000001B1F5801FCCF1200E32D201EB045108
:1012700012FA0EF2BDE8104058BF7047401C38BF4C
:101280005FEA420218BF7047002814BF20F0010037
:1012900041F100014FEA410313F5001F38BF7047C9
:1012A000A1F1C04100F007BA012A43EB0302ACF1FF
:1012B000200CDCF11F0E32BF4FF0000E23FA0CF3AE
:1012C00010EB030041EB0451B4EB115FD0D0A1EB64
:1012D000045101F5801149085FEA300001EB045127
:1012E0000ED350F1000038BF12FA0EFE08D1BDE84F
:1012F0001040C9E7401C38BF5FEA4202CAD1C3E7C9
:10130000BDE810404FEA410313F5001F38BF704796
:10131000A1F1C04100F0CFB99EEA445F08D011EAC4
:101320005E0FBDE8104004BF01F00041002070478F
:10133000BDE8104070B500F070F900BF64FBBE3E20
:101340000000E0FF2DE9C04130B4DFF8A0C23CEA64
:10135000111418BF3CEA131400F0EC8081EA030575
:101360001CEA111444EAD57418BF1CEA131500F0E6
:10137000C780A4EB05044FF0004545EAC12145EACA
:10138000C32341EA505143EA525304F17F74994216
:1013900004F500344FEAC0204FEAC22208BF904251
:1013A00000F09C804FEA13650FF24016765D4FEA1D
:1013B000134506FB05F7C7F1807706FB07F74FEAF1
:1013C000D737A7FB03687642C8F58038A7FB06CE5F
:1013D00038BFA8F1010807FB08E64FF0000EA6FB96
:1013E000028CE6FB03CEDCF1000CCEF1004E38BFE0
:1013F000AEF1010EA6FB0C584FF000074FF00005B0
:10140000E6FB0E87A1FB08C6A0FB07CE16EB0E0677
:1014100045F10005E1FB076515F1E04E7EBFA4F53F
:1014200080345FEA46066D4116F1800745F10005FC
:101430004FEA17274FEA066647EA0567A6F1DE4638
:10144000B6F1805F4FEA15251FD9384624F0010C0C
:1014500005EBC471BCF1FE6F01EB0C1102D8F0BCBE
:10146000BDE8008124425CBF01F5801E9EEAC47F76
:1014700002D4F0BCBDE80081244238D4F0BCA1F114
:10148000C041BDE8004100F016B94FEAD22242EA5D
:1014900043524FEAD323A7FB02864FEAD02040EA0B
:1014A000415007FB03661EEA0E0F4FEAD12105FBF0
:1014B000026658BFA6EB0056B6EB00564FEA520E36
:1014C0004EEAC37E18EB0E0E56EB530EBDD518EB4D
:1014D00002085E417F1C55F10005B6E74FF4801508
:1014E0004FF000074FF000064FF00008ADE7F0BCEA
:1014F0004FF0000001F1C04101F00041BDE8008162
:1015000011EA0C1F0CEA131500D00CE013EA0C1FB3
:1015100000F025804FF00000F0BC81EA030101F0EB
:101520000041BDE80081F0BCBDE8004181EA030153
:1015300000F0C1B8F0BCBDE8004170B500F06DF836
:10154000097EFC3E00F007B881EA03014FF000007D
:1015500001F00041704781EA030100F0ACB8F0BC33
:10156000BDE800414FF0000021497047FFFDFBF945
:10157000F7F5F4F2F0EEEDEBE9E8E6E4E3E1E0DEC6
:10158000DDDBDAD8D7D5D4D3D1D0CFCDCCCBCAC838
:10159000C7C6C5C4C2C1C0BFBEBDBCBBBAB9B8B75F
:1015A000B6B5B4B3B2B1B0AFAEADACABAAA9A8A852
:1015B000A7A6A5A4A3A3A2A1A09F9F9E9D9C9C9B20
:1015C0009A999998979796959594939392919190CB
:1015D0008F8F8E8E8D8C8C8B8B8A8989888887875C
:1015E0008685858484838382828181800000FF07D1
:1015F0000000F87FB0FA80F310FA03F10AD0C3F1CB
:101600001D0303F580634FEA41504FEA035202EB9A
:10161000D12170474FF0000070470EF1020E2EF0FE
:10162000030E5EF8046B364205D4012A43EB030532
:1016300015F5001F12D8012841EB010C1CF5001F05
:101640000CD80ED14FEAD17C15F5001F0CEB4C0CD9
:101650000CF1020C08BF4CEBD37C04E04FF0080CFB
:1016600001E04FEAD37C0CEB4C0526FA05F606F0B8
:101670000706B6F1040C06D20EEB860CBDE87040EE
:101680004CF0010C6047DFE80CF0090B02024FF050
:1016900000414FF00000A1F5002170BD1946104631
:1016A000012851EB010418BFD4F5001484BF0020B9
:1016B00001F0004170BD0808A0F500114FEA3101AA
:1016C0007047000010B591EA030F48BF83F0004354
:1016D0003FF598AD841A71EB030C07D212198CF008
:1016E000004C43EB0C03001B61EB0C01DFF8A4E1A1
:1016F0004FEA1154A4EB135C1EEA430F18BF9EEA95
:10170000445F00F0B08023EA6E03524221EA0451A4
:10171000C3EB6E0338BF5B1EDCF1200E25D322FA2B
:101720000CFE10EB0E0043FA0CFE41EB0E01CCF167
:10173000200E03FA0EFE10EB0E0051F10001CCF169
:10174000200E29D412FA0EF201EB0451BDE810402C
:1017500058BF7047401C1CBFB2F1004F70470028B3
:101760000CBF491C20F00100704712EB020E43EB46
:10177000030218BF4FF0010E4EEA4202ACF1200CFA
:10178000DCF11E0E54D943FA0CFE10EB0E0051F1A1
:10179000FF31CCF11E0ED5D50EF1010E12FA0EFE60
:1017A000404141EB010101EB445C5FEA5C5C10D914
:1017B00010EBDE7001EB045138BFBEF1004FBDE805
:1017C000104018BF704700280CBF491C20F00100D2
:1017D000704730D24FEAD42C11F5001124F4006484
:1017E0001BD0B1FA81F20B3AA41AA41ED2F1200345
:1017F000914030FA03F31943904001EBCC71002C77
:1018000001EB0451BDE81040A8BF704701F1C04191
:101810004FF0000001F000417047B0FA80F310FA79
:1018200003F100D110BDE41A173C4805C90AE4E7EA
:1018300001EB045110BD491001EB0451BDE810400B
:101840004FEA300002E04FF0000170474A0008BF45
:101850000042F8D0B2F5001F28BF704701F00041E8
:101860004FF0000070479EEA445F07D011EA5E0F18
:10187000BDE8104004BF002100207047BDE81040C3
:1018800070B5FFF7CAFE00BF40DFF63E83F00041AF
:10189000104670470000E0FFC10DD1F19E0206DB4B
:1018A0004FEA002343F0004323FA02F0704700425E
:1018B00007D54FEA4001B1F1FE4F02D24FF00000D0
:1018C000704710B500F007F8499224800020704757
:1018D0006FEA200070470EF1020E2EF0030E5EF844
:1018E000044B244204D44FEA4102B2F17F4F11D895
:1018F0004FEA4003B3F17F4F0CD80ED14FEAD07CB2
:10190000B2F17F4F0CEB4C0C0CF1020C08BF4CEB0E
:10191000D17C04E04FF0080C01E04FEAD17C0CEBE5
:101920004C0324FA03F404F00704B4F1040C06D2C7
:101930000EEB840CBDE810404CF0010C6047DFE872
:101940000CF0070802024FF00040A0F5800010BD27
:101950000846420018BFD2F1807288BF00F00040F4
:1019600010BDFF2141EAD050C00570478C19000816
:10197000000000204C00000028010008D8190008D1
:101980004C00002084100000440100084730303033
:1019900030303200000000000000000000000000B5
:1019A0000000000000000000000000000000000037
:1019B0000000000000000000010000000000000026
:1019C0000000000000000000010203040102030403
:0819D0000607080902040608DD
:04000005080000ED02
:00000001FF
