:020000040800F2
:100000008006002061010008690100086B010008FA
:1000100000000000000000000000000000000000E0
:100020000000000000000000000000006D0100085A
:1000300000000000000000006F01000871010008CE
:1000400073010008730100087301000873010008C0
:1000500073010008730100087301000873010008B0
:1000600073010008730100087301000873010008A0
:100070007301000873010008730100087301000890
:1000800073010008730100080000000073010008FC
:100090007301000873010008730100087301000870
:1000A0007301000873010008730100087301000860
:1000B00073010008000000007301000800F002F85E
:1000C00000F03EF80CA030C8083824182D18A246BD
:1000D000671EAB4654465D46AC4201D100F030F895
:1000E0007E460F3E0FCCB6460126334200D0FB1AA7
:1000F000A246AB46334318471C0700003C070000EC
:10010000103A02D378C878C1FAD8520701D330C860
:1001100030C101D504680C60704700000023002442
:1001200000250026103A01D378C1FBD8520700D32E
:1001300030C100D50B6070471FB51FBD10B510BD95
:1001400000F0DAF81146FFF7F7FF00F045FB00F08A
:10015000F2F803B4FFF7F2FF03BC00F0F9F8000077
:100160000748804707480047FEE7FEE7FEE7FEE74F
:10017000FEE7FEE704480549054A064B70470000C4
:1001800011070008BD000008800000208006002044
:100190008002002080020020002203098B422CD321
:1001A000030A8B4211D300239C464EE003460B43C7
:1001B0003CD4002243088B4231D303098B421CD329
:1001C000030A8B4201D394463FE0C3098B4201D31B
:1001D000CB01C01A524183098B4201D38B01C01A53
:1001E000524143098B4201D34B01C01A52410309CA
:1001F0008B4201D30B01C01A5241C3088B4201D379
:10020000CB00C01A524183088B4201D38B00C01A25
:10021000524143088B4201D34B00C01A5241411A4C
:1002200000D201465241104670475DE0CA0F00D02F
:100230004942031000D34042534000229C46030928
:100240008B422DD3030A8B4212D3FC22890112BAAE
:10025000030A8B420CD3890192118B4208D3890186
:1002600092118B4204D389013AD0921100E089099E
:10027000C3098B4201D3CB01C01A524183098B427F
:1002800001D38B01C01A524143098B4201D34B0168
:10029000C01A524103098B4201D30B01C01A5241CB
:1002A000C3088B4201D3CB00C01A524183088B4252
:1002B00001D38B00C01A5241D9D243088B4201D3DB
:1002C0004B00C01A5241411A00D2014663465241C6
:1002D0005B10104601D34042002B00D549427047C5
:1002E00063465B1000D3404201B50020C046C046C3
:1002F00002BD704770477047754600F025F8AE465E
:10030000050069465346C008C000854618B020B5B0
:10031000FFF730FF60BC00274908B6460026C0C57D
:10032000C0C5C0C5C0C5C0C5C0C5C0C5C0C5403DAD
:1003300049008D46704710B50446C046C046204669
:10034000FFF707FF10BD00000048704720000020A5
:1003500001491820ABBEFEE72600020070470000EE
:1003600010B50121880400F099F83820124908607E
:100370000320487102200871104800F021F8002283
:1003800038210E4800F064F80121480400F086F896
:100390000120C0030849086003204871012008714A
:1003A0000920C00600F00CF80121C9030920C0068D
:1003B00000F072F810BD00000000002000040048AA
:1003C000F0B50A4600210023002400BF3DE00125CE
:1003D0008D402B4615681D402C469C4234D1157922
:1003E000012D02D01579022D16D185684F00032604
:1003F000BE40B543856055794E00B54086683543AB
:100400008560858801268E40B543858085889679EC
:100410008E40B6B23543858005684F000326BE4046
:10042000B543056015794E00B54006683543056053
:10043000C5684F000326BE40B543C560D5794E0060
:10044000B540C6683543C560491C1029BFD3F0BD0F
:10045000F0B5002300244D07EE0E1546B5402B469F
:10046000CD10AE0005462035AD594E07F70E0F26CC
:10047000BE40B543CE10B60007462037BD51CD1063
:10048000AE003D46AD591D432C46CD10AD003E4655
:100490007451F0BD0185704781617047002905D016
:1004A000054A52690243044B5A6104E0024A526908
:1004B0008243014B5A61704700100240002905D069
:1004C000054A12690243044B1A6104E0024A1269A8
:1004D0008243014B1A61704700100240002905D089
:1004E000054A92690243044B9A6104E0024A926908
:1004F0008243014B9A61704700100240002905D0E9
:10050000054AD2680243044BDA6004E0024AD2682A
:100510008243014BDA60704700100240002904D08A
:10052000028840231A43028003E00288014B1A40EC
:1005300002807047BFFF000010B501210803FFF7DC
:10054000CDFF144800F02AF8002013490880FF204E
:10055000053048800720000288800020C8800120E4
:10056000088100204881302088810020C881072030
:100570000882084800F03AF801210903054800F014
:1005800061F80121034800F067F801210148FFF7F5
:10059000C5FF10BD003001400C00002010B504461E
:1005A0000B48844208D101218014FFF7A7FF0021E6
:1005B000A014FFF7A3FF0AE00648844207D10121F7
:1005C0000014FFF77BFF00212014FFF777FF10BD19
:1005D00000300140003800400246002013890B40E3
:1005E000002B01D0012000E00020704710B5002250
:1005F0000288C1239B011A400B88CC892343CC88F5
:1006000023430C8923434C8923438C8923431A4376
:1006100002808288084B1A408B881A4382800B8A9A
:1006200003820288054B1A404B881A430280838B51
:10063000034C2340838310BDFFF00000FBFF00004C
:10064000FFF700008288034B1A40828082880A43A9
:1006500082807047FFEF0000002904D082880423C5
:100660001A43828003E08288014B1A4082807047DF
:10067000FBFF0000002202460C32117070470000A0
:10068000F8B500250024002600271C4840680C21EE
:1006900008400546002D04D0042D06D0082D1AD19F
:1006A00007E017481749086019E015481549086020
:1006B00015E012484668012109040E40A00C841C74
:1006C00039460F48FFF768FD60430E4908600E4841
:1006D0006043086003E00A480A49086000BF00BFA1
:1006E00006484068F0210840000908490D5C0548AB
:1006F0000068E84003490860F8BD000000100240AF
:1007000000127A000800002000093D00FA070008E6
:1007100019480068012108431749086008464068E5
:1007200016490840144948600846006814490840C2
:1007300011490860084600680121890488430E4970
:100740000860084640683F21090488430A49486018
:100750000846C06A00090001C8620846006BFF2114
:1007600054318843044908630846406B4008400000
:100770004863002088607047001002400CB8FFF802
:10078000FFFFF6FE00BF0146401E0029FBD1704767
:1007900010B504460121C9030920C006FFF77AFEFF
:1007A00000BF02210B48FFF717FF0028F9D02146B0
:1007B0000848FFF75FFF00BF80210648FFF70CFFE6
:1007C0000128F9D00121C9030920C006FFF764FE02
:1007D00010BD000000300140FFF79AFFFFF750FF07
:1007E000FFF7BEFDFFF7A8FE06E0A020FFF7D0FF51
:1007F0007D20C000FFF7C6FFF7E700000000000003
:1008000000000102030406070809000000000102BD
:100810000304000034080008000000200C00000061
:1008200000010008400800080C00002074060000C9
:100830001C010008000000000000000000127A0007
:04000005080000BD32
:00000001FF
