:020000040800F2
:10000000780600208901000891010008930100088A
:100010009501000897010008990100080000000000
:100020000000000000000000000000009B0100082C
:100030009D010008000000009F010008A1010008C8
:10004000A3010008A3010008A3010008A301000800
:10005000A3010008A3010008A3010008A3010008F0
:10006000A3010008A3010008A3010008A3010008E0
:10007000A3010008A3010008A3010008A3010008D0
:10008000A3010008A3010008A3010008A3010008C0
:10009000A3010008A3010008A3010008A3010008B0
:1000A000A3010008A3010008A3010008A3010008A0
:1000B000A3010008A3010008A3010008A301000890
:1000C000A3010008A3010008A3010008A301000880
:1000D000A3010008A3010008A3010008A301000870
:1000E000A3010008A3010008A301000800F002F822
:1000F00000F03AF80AA090E8000C82448344AAF188
:100100000107DA4501D100F02FF8AFF2090EBAE885
:100110000F0013F0010F18BFFB1A43F0010318473B
:10012000C4040000E4040000103A24BF78C878C179
:10013000FAD8520724BF30C830C144BF04680C60ED
:10014000704700000023002400250026103A28BF35
:1001500078C1FBD8520728BF30C148BF0B60704739
:100160001FB51FBD10B510BD00F031F81146FFF7E7
:10017000F7FF00F01BFA00F04FF803B4FFF7F2FFAF
:1001800003BC00F057F800000948804709480047C1
:10019000FEE7FEE7FEE7FEE7FEE7FEE7FEE7FEE737
:1001A000FEE7FEE704480549054A064B7047000094
:1001B0004D050008ED0000087800002078060020BA
:1001C000780200207802002070477047704775461B
:1001D00000F02CF8AE4605006946534620F00700B3
:1001E000854618B020B5FFF7DDFFBDE820404FF091
:1001F00000064FF000074FF000084FF0000B21F011
:100200000701AC46ACE8C009ACE8C009ACE8C009DD
:10021000ACE8C0098D46704710B50446AFF30080C6
:100220002046BDE81040FFF7A8BF00000048704717
:100230001800002001491820ABBEFEE7260002008E
:100240007047014642F6E06201FB02F000E0401E0A
:100250000028FCD17047000010B50121102000F0EB
:100260009FF810200449C87040020880022088705E
:10027000024800F005F810BD000000200010014009
:100280002DE9F0410246002500260020002300242D
:10029000002791F803C00CF00F0591F803C00CF093
:1002A000100CBCF1000F03D091F802C04CEA050518
:1002B00091F800C0BCF1000F31D0146800202BE091
:1002C0004FF0010C0CFA00F3B1F800C00CEA030681
:1002D0009E4220D183004FF00F0C0CFA03F7BC4371
:1002E00005FA03FC4CEA040491F803C0BCF1280FA2
:1002F00006D14FF0010C0CFA00FCC2F814C00AE061
:1003000091F803C0BCF1480F05D14FF0010C0CFA75
:1003100000FCC2F810C0401C0828D1D31460B1F80A
:1003200000C0BCF1FF0F34DD546800202EE000F166
:10033000080C4FF0010808FA0CF3B1F800C00CEA01
:1003400003069E4221D183004FF00F0C0CFA03F7F5
:10035000BC4305FA03FC4CEA040491F803C0BCF169
:10036000280F05D100F1080C08FA0CF8C2F8148027
:1003700091F803C0BCF1480F07D100F1080C4FF011
:10038000010808FA0CF8C2F81080401C0828CED3E7
:100390005460BDE8F0814161704701617047000021
:1003A00029B1064A92690243044B9A6104E0034A68
:1003B00092698243014B9A6170470000001002402D
:1003C00010B500F001F810BD0CB5002001900090B0
:1003D0003348006840F480303149086000BF30483D
:1003E000006800F4003000900198401C01900098D3
:1003F00018B90198B0F5A06FF1D12948006800F450
:10040000003010B10120009001E000200090009821
:10041000012843D12348006840F0100021490860BA
:100420000846006820F0030008600846006840F0B5
:10043000020008601A484068194948600846406848
:1004400048600846406840F480604860084640685C
:1004500020F47C1048600846406840F4E81048608A
:100460000846006840F08070086000BF0C480068D3
:1004700000F000700028F9D00948406820F003001F
:10048000074948600846406840F00200486000BFE5
:100490000348406800F00C000828F9D10CBD0000AA
:1004A000001002400020024010B500210020002270
:1004B000214B5B6803F00C0121B1042906D0082907
:1004C00028D107E01D4B1E4C236027E01B4B1C4C22
:1004D000236023E0184B5B6803F47010164B5B68D5
:1004E00003F48032022303EB904022B9154B4343BF
:1004F000134C23600DE0104B5B6803F4003323B111
:10050000104B43430E4C236003E00C4B43430C4C15
:10051000236003E0094B0A4C236000BF00BF064B79
:100520005B68C3F30313084CE15C054B1B68CB40CD
:10053000034C236010BD00000010024000127A003E
:100540000400002000093D000800002010B51348F9
:10055000006840F0010011490860084640681049F1
:1005600008400E494860084600680E4908400B499B
:1005700008600846006820F480200860084640684B
:1005800020F4FE0048604FF41F008860FFF718FF5A
:100590004FF000600449086010BD000000100240E8
:1005A0000000FFF8FFFFF6FE08ED00E0FFF7CEFFCA
:1005B000FFF77AFFFFF750FE11E04FF400510848B3
:1005C000FFF7EBFE4FF47A70FFF73BFE4FF400515C
:1005D0000348FFF7E0FE4FF47A70FFF732FEECE7D6
:1005E0000010014004060008000000201800000070
:1005F000280100081C060008180000206006000002
:10060000440100080000000000A24A0400000000AD
:0C061000000000000102030406070809B6
:04000005080000ED02
:00000001FF
